:020000040800F2
:1000000000040020D9020008DB020008DB0200081F
:10001000DB020008DB020008DB020008DB0200084C
:10002000DB020008DB020008DB020008E102000836
:10003000DB020008DB0200080D030008DB020008F9
:10004000DB020008DB020008DB020008DB0200081C
:10005000DB020008DB02000841540008F1540008EC
:100060009155000831560008D1560008E16000089B
:100070003161000891610008F161000851620008D7
:10008000B162000811630008DB020008DB0200080F
:10009000D1660008DB020008DB0200087157000887
:1000A000DB020008DB020008DB020008DB020008BC
:1000B000915E0008DB02000801600008DB02000816
:1000C000DB020008DB020008DB020008DB0200089C
:1000D000DB020008DB020008515C0008DB020008BC
:1000E000A1590008DB020008DB020008DB0200085F
:1000F000DB020008DB020008DB020008DB0200086C
:10010000DB020008DB02000871600008DB02000867
:10011000DB020008DB020008DB020008DB0200084B
:10012000D16300082164000881640008E1640008CC
:1001300041650008DB020008DB020008DB02000862
:10014000DB020008DB020008DB020008DB0200081B
:10015000DB020008DB020008DB020008DB0200080B
:10016000DB020008DB020008DB020008DB020008FB
:10017000DB020008DB020008DB020008DB020008EB
:10018000DB020008DB020008DB020008DB020008DB
:10019000DB020008DB020008DB020008DB020008CB
:1001A000DB020008DB020008DB020008DB020008BB
:1001B000DB020008DB020008DB020008DB020008AB
:1001C00071630008A1650008016600086166000807
:1001D000DB020008DB020008DB020008DB0200088B
:1002000072B6264880F30888254880F30988254877
:1002100025490860022080F31488BFF36F8F04F033
:10022000C7FF06F0F5FB4FF0553020491B4A9142BD
:100230003CBF41F8040BFAE71D49194A91423CBF03
:1002400041F8040BFAE71B491B4A1C4B9A423EBF7C
:1002500051F8040B42F8040BF8E700201849194A3A
:1002600091423CBF41F8040BFAE704F0B9FF04F0F7
:10027000A7FF154C154DAC4203DA54F8041B884710
:10028000F9E706F0C5FD124C124DAC4203DA54F802
:10029000041B8847F9E704F09BBF0000000400201E
:1002A000000800200000000808ED00E00000002029
:1002B00000040020ECEE000800080020B811002027
:1002C000C011002074230120E0010008E0010008B3
:1002D000E0010008E001000892E700F000F8FEE706
:1002E000EFF309820C31EFF31183A1E8FC4F0C30DE
:1002F0004368002B03D1044604F0AAFF2046B0E86F
:10030000FC4F82F3098883F311887047EFF3118360
:1003100008B506F0C5FC002808BF08BDBDE80840C8
:100320000C31EFF30982A1E8FC4F0C304368002B3D
:1003300003D1044604F08CFF2046B0E8FC4F82F362
:10034000098883F31188704704F082FF002383F348
:1003500011882846A047002006F092FCFEE7000026
:1003600081F0004102E000BF83F0004330B54FEA66
:1003700041044FEA430594EA050F08BF90EA020FD3
:100380001FBF54EA000C55EA020C7FEA645C7FEA66
:10039000655C00F0E2804FEA5454D4EB5555B8BF89
:1003A0006D420CDD2C4480EA020281EA030382EAFA
:1003B000000083EA010180EA020281EA0303362D8C
:1003C00088BF30BD11F0004F4FEA01314FF4801C5F
:1003D0004CEA113102D0404261EB410113F0004F71
:1003E0004FEA03334CEA133302D0524263EB430328
:1003F00094EA050F00F0A780A4F10104D5F1200EC6
:100400000DDB02FA0EFC22FA05F2801841F1000120
:1004100003FA0EF2801843FA05F359410EE0A5F1F4
:1004200020050EF1200E012A03FA0EFC28BF4CF025
:10043000020C43FA05F3C01851EBE37101F00045DB
:1004400007D54FF0000EDCF1000C7EEB00006EEBE8
:100450000101B1F5801F1BD3B1F5001F0CD3490872
:100460005FEA30004FEA3C0C04F101044FEA4452C9
:1004700012F5800F80F09A80BCF1004F08BF5FEA50
:10048000500C50F1000041EB045141EA050130BD30
:100490005FEA4C0C404141EB0101013C28BFB1F542
:1004A000801FE9D291F0000F04BF01460020B1FA8D
:1004B00081F308BF2033A3F10B03B3F120020CDA60
:1004C0000C3208DD02F1140CC2F10C0201FA0CF03E
:1004D00021FA02F10CE002F11402D8BFC2F1200CA3
:1004E00001FA02F120FA0CFCDCBF41EA0C01904059
:1004F000E41AA2BF01EB0451294330BD6FEA0404A2
:100500001F3C1CDA0C340EDC04F11404C4F120028C
:1005100020FA04F001FA02F340EA030021FA04F39E
:1005200045EA030130BDC4F10C04C4F1200220FAF5
:1005300002F001FA04F340EA0300294630BD21FA33
:1005400004F0294630BD94F0000F83F4801306BFF9
:1005500081F480110134013D4EE77FEA645C18BFED
:100560007FEA655C29D094EA050F08BF90EA020F84
:1005700005D054EA000C04BF1946104630BD91EA7C
:10058000030F1EBF0021002030BD5FEA545C05D17F
:100590004000494128BF41F0004130BD14F58004BE
:1005A0003CBF01F5801130BD01F0004545F0FE4132
:1005B00041F470014FF0000030BD7FEA645C1ABF67
:1005C000194610467FEA655C1CBF0B46024650EA9E
:1005D000013406BF52EA033591EA030F41F40021CA
:1005E00030BD00BF90F0000F04BF0021704730B550
:1005F0004FF4806404F132044FF000054FF0000125
:1006000050E700BF90F0000F04BF0021704730B5E5
:100610004FF4806404F1320410F0004548BF4042BA
:100620004FF000013EE700BF42004FEAE2014FEA0F
:1006300031014FEA02701FBF12F07F4393F07F4FEA
:1006400081F06051704732F07F4208BF704793F0ED
:100650007F4F04BF41F40021704730B54FF4607400
:1006600001F0004521F000411CE700BF50EA010203
:1006700008BF704730B54FF000050AE050EA0102AC
:1006800008BF704730B511F0004502D5404261EB1C
:1006900041014FF4806404F132045FEA915C3FF45D
:1006A000D8AE4FF003025FEADC0C18BF03325FEAFA
:1006B000DC0C18BF033202EBDC02C2F1200300FAAB
:1006C00003FC20FA02F001FA03FE40EA0E0021FAD0
:1006D00002F11444BDE600BF70B54FF0FF0C4CF4BE
:1006E000E06C1CEA11541DBF1CEA135594EA0C0F70
:1006F00095EA0C0F00F0DEF82C4481EA030621EAAB
:100700004C5123EA4C5350EA013518BF52EA0335E5
:1007100041F4801143F4801338D0A0FB02CE4FF097
:100720000005E1FB02E506F00042E0FB03E54FF0C7
:100730000006E1FB03569CF0000F18BF4EF0010EBF
:10074000A4F1FF04B6F5007F64F5407404D25FEABB
:100750004E0E6D4146EB060642EAC62141EA55516E
:100760004FEAC52040EA5E504FEACE2EB4F1FD0CB0
:1007700088BFBCF5E06F1ED8BEF1004F08BF5FEA2E
:10078000500E50F1000041EB045170BD06F00046E0
:1007900046EA010140EA020081EA0301B4EB5C048D
:1007A000C2BFD4EB0C0541EA045170BD41F4801185
:1007B0004FF0000E013C00F3AB8014F1360FDEBFAA
:1007C000002001F0004170BDC4F10004203C35DA86
:1007D0000C341BDC04F11404C4F1200500FA05F309
:1007E00020FA04F001FA05F240EA020001F00042AA
:1007F00021F0004110EBD37021FA04F642EB060120
:100800005EEA430E08BF20EAD37070BDC4F10C0449
:10081000C4F1200500FA04F320FA05F001FA04F20D
:1008200040EA020001F0004110EBD37041F10001F9
:100830005EEA430E08BF20EAD37070BDC4F1200504
:1008400000FA05F24EEA020E20FA04F301FA05F26C
:1008500043EA020321FA04F001F0004121FA04F214
:1008600020EA020000EBD3705EEA430E08BF20EAE4
:10087000D37070BD94F0000F0FD101F0004640001E
:1008800041EB010111F4801F08BF013CF7D041EAA0
:10089000060195F0000F18BF704703F000465200A4
:1008A00043EB030313F4801F08BF013DF7D043EA75
:1008B0000603704794EA0C0F0CEA135518BF95EA2B
:1008C0000C0F0CD050EA410618BF52EA4306D1D1B2
:1008D00081EA030101F000414FF0000070BD50EAD1
:1008E000410606BF1046194652EA430619D094EA5B
:1008F0000C0F02D150EA013613D195EA0C0F05D145
:1009000052EA03361CBF104619460AD181EA030198
:1009100001F0004141F0FE4141F470014FF0000050
:1009200070BD41F0FE4141F4780170BD70B54FF0EB
:10093000FF0C4CF4E06C1CEA11541DBF1CEA13556B
:1009400094EA0C0F95EA0C0F00F0A7F8A4EB05044D
:1009500081EA030E52EA03354FEA013100F0888044
:100960004FEA03334FF0805545EA131343EA12630D
:100970004FEA022245EA111545EA10654FEA0026C2
:100980000EF000419D4208BF964244F1FD0404F57B
:10099000407402D25B084FEA3202B61A65EB0305D7
:1009A0005B084FEA32024FF480104FF4002CB6EB94
:1009B000020E75EB030E22BFB61A754640EA0C0014
:1009C0005B084FEA3202B6EB020E75EB030E22BF54
:1009D000B61A754640EA5C005B084FEA3202B6EB95
:1009E000020E75EB030E22BFB61A754640EA9C0054
:1009F0005B084FEA3202B6EB020E75EB030E22BF24
:100A0000B61A754640EADC0055EA060E18D04FEAE1
:100A1000051545EA16754FEA06164FEAC30343EA81
:100A200052734FEAC2025FEA1C1CC0D111F4801F4E
:100A30000BD141EA00014FF000004FF0004CB6E747
:100A400011F4801F04BF01430020B4F1FD0C88BFE6
:100A5000BCF5E06F3FF6AFAEB5EB030C04BFB6EBF1
:100A6000020C5FEA500C50F1000041EB045170BDE4
:100A70000EF0004E4EEA113114EB5C04C2BFD4EB11
:100A80000C0541EA045170BD41F480114FF0000E95
:100A9000013C90E645EA060E8DE60CEA135594EA11
:100AA0000C0F08BF95EA0C0F3FF43BAF94EA0C0F14
:100AB0000AD150EA01347FF434AF95EA0C0F7FF489
:100AC00025AF104619462CE795EA0C0F06D152EADD
:100AD00003353FF4FDAE1046194622E750EA4106C1
:100AE00018BF52EA43067FF4C5AE50EA41047FF4D2
:100AF0000DAF52EA43057FF4EBAE12E74FF0FF3C37
:100B000006E000BF4FF0010C02E000BF4FF0010C07
:100B10004DF804CD4FEA410C7FEA6C5C4FEA430C80
:100B200018BF7FEA6C5C1BD001B050EA410C0CBFCF
:100B300052EA430C91EA030F02BF90EA020F002031
:100B4000704710F1000F91EA030F58BF994208BF98
:100B500090422CBFD8176FEAE37040F00100704755
:100B60004FEA410C7FEA6C5C02D150EA013C07D1AC
:100B70004FEA430C7FEA6C5CD6D152EA033CD3D0F7
:100B80005DF8040B704700BF8446104662468C46F1
:100B90001946634600E000BF01B5FFF7B7FF002824
:100BA00048BF10F1000F01BD4DF808EDFFF7F4FF4D
:100BB0000CBF012000205DF808FB00BF4DF808EDD8
:100BC000FFF7EAFF34BF012000205DF808FB00BFFB
:100BD0004DF808EDFFF7E0FF94BF012000205DF81D
:100BE00008FB00BF4DF808EDFFF7CEFF94BF0120D2
:100BF00000205DF808FB00BF4DF808EDFFF7C4FFCB
:100C000034BF012000205DF808FB00BF4FEA410C13
:100C10007FEA6C5C02D150EA013C0AD14FEA430CF6
:100C20007FEA6C5C02D152EA033C02D14FF0000033
:100C300070474FF0010070474FEA410212F5001271
:100C400015D211D56FF47873B3EB625212D94FEA13
:100C5000C12343F0004343EA505311F0004F23FAFD
:100C600002F018BF404270474FF00000704750EA52
:100C7000013005D111F0004008BF6FF0004070470F
:100C80004FF00000704700BF4FEA4002B2F1FE4F44
:100C90000FD34FF09E03B3EB12620DD94FEA00233E
:100CA00043F0004310F0004F23FA02F018BF404217
:100CB00070474FF00000704712F1610F01D14202FE
:100CC00005D110F0004008BF6FF0004070474FF0B2
:100CD00000007047844641EA000313F003036DD11E
:100CE000403A41D351F8043B40F8043B51F8043BEF
:100CF00040F8043B51F8043B40F8043B51F8043BF6
:100D000040F8043B51F8043B40F8043B51F8043BE5
:100D100040F8043B51F8043B40F8043B51F8043BD5
:100D200040F8043B51F8043B40F8043B51F8043BC5
:100D300040F8043B51F8043B40F8043B51F8043BB5
:100D400040F8043B51F8043B40F8043B51F8043BA5
:100D500040F8043B51F8043B40F8043B51F8043B95
:100D600040F8043B403ABDD2303211D351F8043B35
:100D700040F8043B51F8043B40F8043B51F8043B75
:100D800040F8043B51F8043B40F8043B103AEDD2E4
:100D90000C3205D351F8043B40F8043B043AF9D235
:100DA000043208D0D2071CBF11F8013B00F8013B08
:100DB00001D30B8803806046704700BF082A13D315
:100DC0008B078DD010F003038AD0C3F10403D21A2D
:100DD000DB071CBF11F8013B00F8013B80D331F861
:100DE000023B20F8023B7BE7043AD9D3013A11F8E1
:100DF000013B00F8013BF9D20B7803704B7843704C
:100E00008B7883706046704700000000000000008F
:100E100000000000000000000000000000000000D2
:100E2000A2EB0300704700BF02780B78012A28BFAD
:100E30009A42F5D16DE9044540EA0104CDE9026723
:100E40006FF0000C4FEA447212B380EA010414F010
:100E5000070F6AD100F0070420F0070004F0030533
:100E600021F007014FEAC505F0E8042314F0040F50
:100E7000F1E804670CFA05F462EA040266EA040683
:100E80000AD063EA0403624667EA0407664603E0A1
:100E9000F0E80423F1E8046782FA4CF582EA0604DC
:100EA000A4FA8CF46CBB83FA4CF583EA0705A5FA27
:100EB0008CF595B950E9022351E9026782FA4CF5A5
:100EC00082EA0604A4FA8CF483FA4CF583EA070557
:100ED000A5FA8CF52543DBD09CB92DBAB5FA85F47B
:100EE00024F0070427FA04F1DDE9026723FA04F38A
:100EF00003F0FF0001F0FF01FDE80445A0EB010055
:100F0000704724BAB4FA84F424F0070426FA04F1F2
:100F1000DDE9026722FA04F202F0FF0001F0FF01AE
:100F2000FDE80445A0EB0100704714F0030F3CD12D
:100F300010F0030428D150F8082B51F8083B82FA2E
:100F40004CF582EA0305A5FA8CF55DB950F8042C3E
:100F500051F8043C82FA4CF582EA0305A5FA8CF5B7
:100F6000002DE8D02DBAB5FA85F424F0070423FA51
:100F700004F122FA04F202F0FF0001F0FF01FDE8A3
:100F80000445A0EB010070474FEAC40420F00300C1
:100F900050F8082B21F0030151F8083B0CFA04F437
:100FA00062EA040263EA0403C9E710F003041AD0FA
:100FB000A1EB040120F00300E40750F8042B06D055
:100FC0000FD28B785FFAA2F4E41A06D12BB1CB785A
:100FD0005FFAB2F4E41A00D11BB920465DF8104B59
:100FE000704701F1040150F8042BCC0721F00301F4
:100FF00051F8043B48D824D222F07F4482FA4CF5C1
:1010000094EA1325A5FA8CF50AD165B951F8043B89
:1010100084EA0204B4EB036F0ED150F8042BEBE723
:101020004FEA132355E035F07F454DD10878FDE8B0
:101030000445C0F1000070474FEA126203F0FF035D
:1010400047E002EA1C4482FA4CF594EA1345A5FAFB
:101050008CF50AD165B951F8043B84EA0204B4EB7B
:10106000034F0CD150F8042BEBE74FEA134330E069
:1010700015EA1C4528D10B884FEA124229E04FEAB5
:10108000124203EA1C4324E002F0FF0482FA4CF50A
:1010900094EA1365A5FA8CF50AD165B951F8043BB9
:1010A00084EA0204B4EB032F09D150F8042BEBE7D8
:1010B0004FEA13630DE015F0FF0F05D10B684FEAFF
:1010C000122223F07F4304E04FF00000FDE80445C6
:1010D000704712BA1BBA82FA4CF482EA0304A4FAEB
:1010E0008CF5B5FA85F402FA04F203FA04F34FEA38
:1010F0001260FDE80445A0EB13607047000000009B
:1011000090F800F06DE9024520F007016FF0000C47
:1011100010F0070491F820F040F049804FF00004EF
:101120006FF00700D1E9002391F840F000F10800CA
:1011300082FA4CF2A4FA8CF283FA4CF3A2FA8CF302
:101140004BBBD1E9022382FA4CF200F10800A4FA69
:101150008CF283FA4CF3A2FA8CF3E3B9D1E90423BD
:1011600082FA4CF200F10800A4FA8CF283FA4CF3F4
:10117000A2FA8CF37BB9D1E9062301F1200182FAAE
:101180004CF200F10800A4FA8CF283FA4CF3A2FAB4
:101190008CF3002BC6D0002A04BF04301A4612BAC2
:1011A000B2FA82F2FDE8024500EBD2007047D1E9C5
:1011B000002304F00305C4F100004FEAC50514F054
:1011C000040F91F840F00CFA05F562EA05021CBF25
:1011D00063EA050362464FF00004A9E7000000003F
:1011E00001F0FF01102A2BDB10F0070F08D010F8D8
:1011F000013B013A8B422DD010F0070F42B3F6D1DC
:10120000F0B441EA012141EA014122F007047FF0F4
:1012100000070023F0E80256083C85EA010586EA4B
:10122000010685FA47F5A3FA87F586FA47F6A5FA87
:1012300087F68EB9EED1F0BC01F0FF0102F0070293
:1012400032B110F8013B013A83EA010313B1F8D13E
:101250000020704701387047002D06BF354603381F
:10126000073815F0010F07D1013015F4807F02BF58
:10127000013015F4C03F0130F0BC0138704700BFA9
:101280004A0011D212F5001211D20DD56FF4787305
:10129000B3EB62520ED44FEAC12343F0004343EA5A
:1012A000505323FA02F070474FF00000704750EAA5
:1012B000013002D14FF0FF3070474FF0000070470F
:1012C0004FEA4102B2F1E04324BFB3F5001CDCF168
:1012D000FE5C0DD901F0004C4FEAC0024CEA5070A0
:1012E000B2F1004F40EB830008BF20F001007047CF
:1012F00011F0804F21D113F13872BCBF01F00040D2
:10130000704741F480114FEA5252C2F11802C2F103
:10131000200C10FA0CF320FA02F018BF40F0010084
:101320004FEAC1234FEAD32303FA0CFC40EA0C0036
:1013300023FA02F34FEA4303CCE77FEA625307D173
:1013400050EA01331EBF4FF0FE4040F440007047AA
:1013500001F0004040F0FE4040F40000704700BF44
:101360004FF0FF3C06E000BF4FF0010C02E000BF71
:101370004FF0010C4DF804CD4FEA40024FEA410313
:101380007FEA226C18BF7FEA236C11D001B052EAC9
:10139000530C18BF90EA010F58BFB2EB030088BF8F
:1013A000C81738BF6FEAE17018BF40F001007047FE
:1013B0007FEA226C02D15FEA402C05D17FEA236CE0
:1013C000E4D15FEA412CE1D05DF8040B704700BF27
:1013D000844608466146FFE70FB5FFF7C9FF0028BE
:1013E00048BF10F1000F0FBD4DF808EDFFF7F4FFF7
:1013F0000CBF012000205DF808FB00BF4DF808ED90
:10140000FFF7EAFF34BF012000205DF808FB00BFB2
:101410004DF808EDFFF7E0FF94BF012000205DF8D4
:1014200008FB00BF4DF808EDFFF7D2FF94BF012085
:1014300000205DF808FB00BF4DF808EDFFF7C8FF7E
:1014400034BF012000205DF808FB00BF4FEA4002D6
:101450004FEA41037FEA226C02D15FEA402C08D1B7
:101460007FEA236C02D15FEA412C02D14FF00000E9
:1014700070474FF00100704753B94AB9002908BFBF
:1014800000281CBF4FF0FF314FF0FF3000F0ACB927
:10149000ADF1080C6DE904CE00F03EF8DDF804E093
:1014A000DDE9022304B0704738B505460C462846EE
:1014B000214600220023FFF781FB28B92846214658
:1014C000BDE8384000F00AB8284604F1004100F0B9
:1014D00005F8404261EB410138BD00BFD0B50C4B6F
:1014E000002206460F46FFF7F7F8FFF7C9FE04464D
:1014F000FFF778F8074B0022FFF7EEF802460B469D
:1015000030463946FEF730FFFFF7BAFE2146D0BD20
:101510000000F03D0000F0412DE9F047089E0D4627
:1015200004468846002B4DD18A42944668D9B2FAC7
:1015300082F252B101FA02F3C2F1200120FA01F164
:101540000CFA02FC41EA030894404FEA1C45210CC6
:10155000B8FBF5FE1FFA8CF705FB1E8341EA034337
:101560000EFB07F199420BD91CEB03030EF1FF3080
:1015700080F01E81994240F21B81AEF1020E63445D
:101580005B1AA4B2B3FBF5F005FB103344EA034445
:1015900000FB07F7A7420AD91CEB040400F1FF3354
:1015A00080F00881A74240F2058164440238E41BC0
:1015B00040EA0E4000211EB1D4400023C6E900439A
:1015C000BDE8F0878B4208D9002E00F0EE800021A4
:1015D000C6E900050846BDE8F087B3FA83F10029A3
:1015E0004AD1AB4202D3824200F2F980841A65EB01
:1015F000030301209846002EE2D0C6E90048DFE749
:1016000002B9FFDEB2FA82F2002A40F09180A1EB2B
:101610000C054FEA1C471FFA8CFE0121B5FBF7F3BE
:1016200007FB1350250C45EA00450EFB03F0A842CA
:1016300008D91CEB050503F1FF3802D2A84200F2DD
:10164000CB8043462D1AA4B2B5FBF7F007FB10552B
:1016500044EA05440EFB00FEA64508D91CEB040431
:1016600000F1FF3502D2A64500F2BB802846A4EB6C
:101670000E0440EA03409EE7C1F120078B4022FAA6
:1016800007FC4CEA030C20FA07F405FA01F31C43AB
:10169000FD404FEA1C4900FA01F3B5FBF9F8200CB4
:1016A0001FFA8CFE09FB185540EA054508FB0EF0B1
:1016B000A84202FA01F20BD91CEB050508F1FF3A2A
:1016C00080F08880A84240F28580A8F10208654435
:1016D0002D1AA4B2B5FBF9F009FB105544EA0545F3
:1016E00000FB0EFEAE4508D91CEB050500F1FF34EA
:1016F0006CD2AE456AD90238654440EA0840A0FB86
:101700000294A5EB0E05A542C846A64656D353D073
:101710005EB1B3EB080265EB0E0505FA07F722FA96
:1017200001F3CD401F43C6E900750021BDE8F087F5
:10173000C2F1200320FA03F10CFA02FC25FA03F3AC
:1017400095400D434FEA1C471FFA8CFEB3FBF7F19F
:1017500007FB11302B0C43EA004301FB0EF09842CB
:1017600004FA02F408D91CEB030301F1FF382FD26D
:1017700098422DD9023963441B1AADB2B3FBF7F07E
:1017800007FB103345EA034500FB0EF3AB4208D9D3
:101790001CEB050500F1FF3816D2AB4214D9023814
:1017A0006544ED1A40EA014138E73146304607E723
:1017B0008646E5E61846FAE64B45A9D2B9EB02089B
:1017C00064EB0C0E0138A3E74046EAE7204694E7B5
:1017D0004146D1E7D0467BE7023B654432E7084605
:1017E00009E76444023842E7704700BF0000000088
:1017F0000020704700000000000000000000000012
:1018000090F8743003F06003202B01D00020704763
:1018100090F87530212B09D81F2BF7D907490722DB
:101820000023C0E91A12036701207047222BEDD173
:101830000023C0E91A330367012070470008002025
:10184000704700BF00000000000000000000000022
:1018500000290CBF6FF0130000207047000000004B
:1018600090F87630074A80F87E3043F0800310B558
:10187000D36443681B6804460BB1012198470323D6
:10188000237010BD005C004000000000000000005C
:1018900070B500EB81044689E5684FF0010CAC6936
:1018A0000CFA01FE4EEA060EA0F80AE0A260002241
:1018B0002360626033B16A8A013B1344B3FBF2F3E5
:1018C0001FFA83FC084AA4F80CC052F8213023F414
:1018D000904323F0700383F4405343F4004343F0F8
:1018E000800342F8213070BD005C00400000000021
:1018F00010B4D0F88C341C682278042A02D1027A01
:10190000022A01D010BC70475979628901238B40AB
:101910001342F7D1D0E907239A4206D020464FF46C
:10192000807310BC0432FFF7B3BF8369002BE9D189
:10193000F4E700BF0000000000000000000000000D
:10194000436BD3F88C2410680178042902D1197AEA
:10195000022900D070475179B0F80AC001228A40AC
:1019600012EA0C0FF6D1D3E9072C624504D04FF4EC
:1019700080730432FFF78CBF9B69002BEAD1F6E736
:1019800030B500EB8105B0F808C0ED6801248C404B
:1019900044EA0C040481288A6C69984228BF1846DE
:1019A0002360C4E9022000236360194B1B6D03F11F
:1019B000804303F5C04303EBC10384B2B3F800E0F6
:1019C0005C80A0B100F1FF3C2CF0010C0CF1020C8A
:1019D000C2F180441FFA8EFE1346944404F5C044BD
:1019E0001A4633F8020B724463451053F8D1084A83
:1019F00052F8213023F4F04323F0400383F0300306
:101A000043F4004343F0800342F8213030BD00BF6F
:101A1000005C00400000000000000000000000002A
:101A200030B4446BD4F88C2410680178042902D1B6
:101A3000217A022901D030BC70471179B0F808C072
:101A400001228A4012EA0C02F5D1D4E915C5AC4551
:101A500005D02A4652F8043B30BCFFF791BF246DF5
:101A6000002CF6D0F8E700BF0000000000000000E6
:101A70002DE9F04F02F00308C2F34115D609C6461E
:101A800000224FF00F0B4FF0010A4FF0030912E054
:101A90000468234043EA0E03072A03603DD8036A23
:101AA00023EA0C0C4CEA07070762490833D0AD0063
:101AB0004FEA8E0E0132CB07F7D543680AFA02F4DB
:101AC00023EA040343608468530009FA03F324EA19
:101AD00003048460C46802F0070C24EA03044FEA9C
:101AE0008C0C2C43B8F1020F06FA0CF7C4600BFA09
:101AF0000CFC6FEA0303CBD1072A15D8046A24EA49
:101B00000C0C4CEA070707620468234043EA0E0303
:101B100049080360CBD1BDE8F08F436A23EA0C0C7F
:101B20004CEA07074762C0E7446A24EA0C0C4CEA17
:101B300007074762E8E700BF000000000000000060
:101B4000836A9962DA6912F0800FC26806D0D20601
:101B500003D51A6842F040021A6070471107F6D5A3
:101B6000996841F400019960F1E700BF00000000AE
:101B700000EB810330B5DC68236803F00303032B1B
:101B800044D14FF4C06C2B4B1B6D03F1804303F524
:101B9000C04303EBC102636983B1238AD0F8845048
:101BA000013323F001032B444FF0000EADB2A2F835
:101BB00002E04CF0200CC0F884301580A369D3B14A
:101BC000638A3E2B03F1FF3E27D84EF0010E0EF143
:101BD000010E4FEA4E2E0EF47C4ED0F88440A2F84F
:101BE00006E0013323F001032344A4B2C0F884309B
:101BF0004CF4005C94808B0003F1804303F5B84300
:101C00004CEA01011A681A60196030BD002B0CBF44
:101C10004FF4007C4FF0000CB5E74EF01F0E064C61
:101C20000EF1010E4FEA5E1E44EA8E2E1FFA8EFE62
:101C3000D3E700BF005C00400080FFFF0000000011
:101C4000FEE700BF000000000000000000000000F0
:101C500070B4D0E902344168D0F810C043F8401C99
:101C60000022274943F874CC02260125D0F814C07D
:101C7000006803F83C6C43F8804C03F83A5C03F8C6
:101C80003B2C204ECD6A43F8906CA3F1A80643F894
:101C90007C6C302643F8786C6FF0020643F8204CD9
:101CA00043F8440C43F8546CA3F1500401F12800AC
:101CB0004FF0807643F8481C43F8500C43F84C5CD6
:101CC00043F88C6C43E90A2243F870CCA3F130004E
:101CD0002C60CC62A3F1340443E90D4000250024BC
:101CE0004FF0FF3143F82C0C43F8181CA3F1880087
:101CF00043E9024570BC43E9052243F80C2C7047C8
:101D0000F019012049030008000000000000000055
:101D1000014B5B6883607047001000E0000000002A
:101D20000148FFF7F5BF00BFC81A012000000000FE
:101D30000E4A0F4B81685B6810B4946802691B1BE4
:101D40005B1AD218416902614268C46841F100011E
:101D50009342026888BF436001349342C0E9023471
:101D6000416110BC38BF0360704700BFE81B012011
:101D7000001000E000000000000000000000000073
:101D800070B590F86430044613B1002380F86430D5
:101D9000BA4BBB481A6D02F1804202F5C04202EB19
:101DA000C10204F17403918804F17C05001B89B21F
:101DB0005A18125A23F8022B9D42F9D163689B6886
:101DC0003BB32046984720B3E36E94F87410B4F800
:101DD0007A209A423CBFE26613460A0600F1D78099
:101DE000002B00F09680152384F86430302383F3B1
:101DF0001188A448FFF78CFFD4E91A23002120465C
:101E0000FFF746FD9F48FFF793FF002383F31188F8
:101E100070BD94F8741011F060061CD194F8752010
:101E200001F07F0343EA022340F20232934200F0C2
:101E300064814DD8B3F5807F00F011812AD9B3F5C4
:101E4000817F00F02781B3F5407F04D194F876308C
:101E5000012B00F0C980894965680A6822F4F042C4
:101E600022F0400248F2800082F0100202430A6031
:101E70000B682A6823F4904323F0700383F48053A3
:101E800003430B6012B1062120469047062384F8D5
:101E9000643070BD012B55D0022B47D194F97800E6
:101EA00094F87820002802F00F02744850F822209D
:101EB000C0F2918012F44052CDD0B2F5805F00F0B4
:101EC000918071480222C4E91A02002222677EE74B
:101ED000B3F5006F00F00A813BD9B3F5106F2DD137
:101EE0002378042B00F08A8094F876304BB1626836
:101EF00084F87F3004212170136813B10221204639
:101F000098470023C4E91A3394F8741023670B062A
:101F100054D40B2384F86430302383F31188594858
:101F2000FFF7F6FE00231A4619463DE0002B92D13A
:101F300002222367C4E91A52134648E740F60242D8
:101F4000934288D1514802230022C4E91A03226730
:101F50003DE7B3F5A06F00F0C480A3F5C063012B8B
:101F60003FF679AF6268B4F87830556894F8771026
:101F700094F876202046A84700283FF46CAFD0E9BB
:101F8000003294F874102667C4E91A231FE7ABB136
:101F9000092384F86430302383F311883948FFF72C
:101FA000B7FED4E91A2300212046FFF7E9FC3548A3
:101FB000FFF7BEFE002383F3118870BD142384F85D
:101FC0006430302383F311882E48FFF7A1FE0023ED
:101FD0001A46194613E712F030023FF43CAF102ABC
:101FE0007FF46FAF2A486DE7B4F87C30A66643F003
:101FF0000203C4E91B66A4F87C3088E7302383F32E
:1020000011882048FFF784FEA368A662C4E904662D
:10201000C4E90666C4E90866402203F00113C4F867
:102020008420A3600122930003F1804303F5B843A9
:10203000013219681960082A1E60F4D11148FFF7AF
:1020400077FE86F311880321636884F87F6021702E
:102050001B68002B3FF448AF2046984744E794F8AC
:102060007630012B7FF4F7AEB4F87C30A66623F00F
:102070000203C4E91B66A4F87C3048E7005C00401A
:102080008C5F0040E01A012020E60008B8E9000853
:1020900034E7000894F87630002B7FF4DCAE94F837
:1020A000782012F00F0317D09B0003F1804303F553
:1020B000B84312F0800F1A683CD102F44052B2F5D6
:1020C000405F09D01A6822F4F04222F0400242F444
:1020D000204242F080021A600023C4E91A332367C9
:1020E00015E7234B2367C4E91A6610E7012304F1BF
:1020F0007F02C4E91A23266769E694F87630002B3C
:102100007FF4A9AE94F8783013F00F02E4D01948A8
:1021100013F0800F50F822301DD123F4904323F0A8
:10212000700383F4805343F4004343F0800340F88A
:102130002230D1E702F03002302ACDD01A6822F4E2
:10214000F04222F0400282F0200242F4004242F0CB
:1021500080021A60C0E723F4F04323F0400383F0C9
:10216000100343F4004343F0800340F82230B3E708
:1021700061180008005C0040000000000000000042
:1021800038B590F864300446152B26D8DFE803F004
:102190002625252525252625250B104525252525FC
:1021A000252525252626C36EB0F87A2093423BD3F9
:1021B000142384F86430302383F311882948FFF70F
:1021C000A7FD00231A4619462046FFF761FB254864
:1021D000FFF7AEFD002383F3118838BD22496568FF
:1021E0000A6822F4F04222F0400248F2800082F0B5
:1021F000100202430A600B682A6823F4904323F01C
:10220000700383F4805303430B6012B10621204610
:102210009047062384F8643038BD036F03B19847B4
:10222000002384F8643038BDC268158AB3FBF5F228
:1022300005FB1235002DBBD1302383F311880948EB
:10224000FFF766FD2A462B4629462046FFF798FBF6
:102250000448FFF76DFD85F311880A2384F8643084
:1022600038BD00BFE01A0120005C00400000000003
:1022700038B590F864300446152B2AD8DFE803F00F
:102280000B29292929290B29290B0B0B2929292954
:1022900029292929402A204965680A6822F4F04240
:1022A00022F0400248F2800082F0100202430A60ED
:1022B0000B682A6823F4904323F0700383F480535F
:1022C00003430B6012B1062120469047062384F891
:1022D000643038BD0B2380F86430302383F31188D9
:1022E0000E48FFF715FD00231A4619462046FFF752
:1022F00047FB0A48FFF71CFD002383F3118838BD14
:10230000C3689B695B68002BE3D1036F03B19847F7
:10231000002384F8643038BD005C0040E01A0120DE
:102320000D4B5B6810B48B60D0E9034281685B1A87
:10233000D21841690261426841F10001934202688A
:1023400088BF436001349342C0E90234416110BC4C
:1023500038BF0360704700BF001000E000000000BD
:1023600038B50D4BDD681C6885F84C002168196094
:1023700001224B6084F84C20D3F8D420DC60013279
:1023800004F1700105F17000C3F8D420FFF7C8FF15
:102390002046294600DF38BDF0190120000000006A
:1023A00010B53023044683F311880C48FFF7B0FCC6
:1023B0000B4B58684942041B0C401968A21A8A4208
:1023C0000AD3904208D35A600448FFF7B1FC0023B7
:1023D00083F31188204610BD0024F5E7C81A0120B8
:1023E000E01B0120000000000000000000000000D1
:1023F000022906D0032906D00129074818BF00206A
:10240000704706487047032A03D8054800EBC2000E
:1024100070470020704700BFC0E8000874E800085B
:1024200048E9000800000000000000000000000073
:1024300070B5302383F311882148FFF769FC214BE5
:10244000D3F88C2410680178042902D1197A022962
:1024500006D01B48FFF76CFC002383F3118870BD86
:102460001179B0F808C001228A4012EA0C0FF0D1AD
:10247000D3E915529542ECD11D6D002DE9D0DD6EEA
:10248000002DE6D0043DAD1AE3D015601D6D1E6E23
:10249000013D1D65DD6D1644AE425E6524BF9E6E36
:1024A0005E650025B242DD6605D052F8044B234636
:1024B000FFF766FACDE71B6D002BF6D02A46F6E74C
:1024C000E01A01206C130120000000000000000051
:1024D000F0B53B4C216800234FF0010C0CFA03F2DD
:1024E0000A4204D00133102BF8D10020F0BD114373
:1024F0002160591C334D44F8310004EBC1013248CE
:1025000048605FFA82FC1420614600FB035049B129
:102510002E498E6C46F001068E648E6E46F00106E2
:102520008E66896E12F47F4F09D028498E6C46F072
:1025300002068E648E6E46F002068E66896E234910
:102540008E6C46F004068E648E6E4FF0140C46F0CE
:1025500004060CFB035C8E66896EDCF8086061681B
:10256000314212D00A436260142202FB03F3EA18DC
:10257000EC585368157C19680E2221F00F01196080
:10258000AA40002162601960F0BD9CF812C04FEAB9
:102590005C16B6000CF1604E06F1604606F5614629
:1025A0000CF01F0C01270EF5614E07FA0CF74FF0E7
:1025B000A00C8EF800C3C6F880713760D2E700BF68
:1025C000181C0120E0E400082C1801200010024033
:1025D000F8B50C0759D443681A780446002A3DD14F
:1025E000456A5E686968026A0B6823F00F030B6036
:1025F000297C2D680E2303FA01F16960D2E9007588
:10260000296821F00F012960127C93407B60002E25
:1026100044D004230370B0472378042B3ED03023EA
:1026200083F311881F48FFF773FBA3687BB1002178
:102630001A6C9868A160196583F84C10126891684B
:102640008142FBD25168C3E900210B6053601548F9
:10265000FFF76EFB002383F31188F8BD4A070D4690
:1026600003D55B68002BF8D09847AB07F5D56368B6
:102670005B68002BF1D00422227020469847237813
:10268000042BEAD103232370F8BD72B60649074B29
:102690000748C1F8C80003221A70FEE7022323701E
:1026A000BDE700BFE01A0120F0190120E81B01205E
:1026B00080DB0008000000000000000000000000B7
:1026C0000B0700D4704772B60349044B0448C1F8A5
:1026D000C80003221A70FEE7F0190120E81B012050
:1026E00080DB000800000000000000000000000087
:1026F00010B5302383F311881D48FFF709FB91F8CB
:102700004C300C2B10D8DFE803F02B0F0F270B07F2
:102710000F0B0F0F0F0F0B000A6D936801339360BF
:10272000D1E9003213605A604FF0FF3400220B6C85
:1027300088680C6581F84C201B689A688242FBD23D
:102740005A680B48C1E9003211605960FFF7F0FA8E
:10275000002383F3118810BD0B6D00221A60E3E79C
:102760000348FFF7E5FA002383F3118810BD00BF8B
:10277000E01A01200000000000000000000000003E
:1027800038B5154BDC681D68A168AA688A4221D952
:102790002A681A605360012285F84C20002284F8D0
:1027A0004C20226CDD60126890688142FBD3516836
:1027B000C4E900210C60D3F8D41054600131C3F88F
:1027C000D41004F1700005F17001FFF7A9FD28464F
:1027D000214600DF38BD00BFF019012000000000D5
:1027E0001E4BDB685A6D186503F154018A4205D10E
:1027F00093F84E20EAB10F20FFF7B2BD70B44FF04E
:10280000000C1468106C96685C6582F84CC0006817
:102810008568B542FBD2456810608C4255602A60DD
:1028200042600FD193F84E2072B170BC0F20FFF7B9
:1028300097BD93F84D209207DDD1D3E90E32136096
:102840005A60D8E72246DCE793F84D209107ECD197
:10285000D3E90E3213605A60E7E700BFF019012098
:1028600070B50246302383F31188364901F1D80050
:10287000FFF74EFA9368C968002B35D08C689868CA
:10288000844207D993F84C009C60062840D0072862
:102890002FD0C0B1134603E088689C68844202D3FD
:1028A0001B689A42F8D15C680620C1E900342160B7
:1028B00059600A65FFF754FD2348FFF739FA0023F2
:1028C00083F3118870BDD3E9005635606E6083F8DC
:1028D0004C00186C00688568A542FBD24468C3E9C7
:1028E000000423604360D5E74B6EC2E902134A66D9
:1028F000E2E7D3E900051C6D28604560204603E04F
:1029000085689E68B542E9D300688442F8D1E5E75E
:10291000D3E900051C6D28604560204603E085680A
:102920009E68B54202D300688442F8D145681860B9
:102930005D602B604360A3688C6898688442A1D86E
:10294000A8E700BFF0190120C81A0120000000000C
:102950001F4B10B50146DC68302282F3118803F169
:10296000D800FFF7D5F90A68CB6863668A422BD096
:10297000A06E4BB11A68934203D09268904238BF60
:102980001046DB68002BF5D1A0600B68586E1A6802
:102990000A6000245160C1E902301A6C98685966D7
:1029A00083F84C40126891688142FBD25168C3E9B8
:1029B00000210B605360FFF7E3FE0648FFF7B8F90C
:1029C000002383F3118810BD00239360F5E700BF57
:1029D000F0190120C81A01200000000000000000CA
:1029E0000368984234D0F0B4002605E0BCF10B0F28
:1029F00029D01B68984224D0DA680A43DA6011B102
:102A00001A691142F5D0D3E90124156E92F84CC031
:102A10002C43BCF10A0F1466E8D1156D2C42E8D0A6
:102A2000146C9768166582F84C602468A568BD42EE
:102A3000FBD21B6865689842C2E900452A60626063
:102A4000DAD1F0BC7047156D35EA0404D1D1E7E75F
:102A5000704700BF00000000000000000000000000
:102A6000F8B500EB81039C6A0CB305460E46302393
:102A700083F311882D48FFF74BF90821201DFFF73C
:102A8000AFFF05EB8603D86843691B6883B9A26D65
:102A9000616D91423AD052F8043B31462846FEF728
:102AA0006FFF2248FFF744F9002383F31188F8BD34
:102AB000226DA16D01322265226E0A44E16DA2658C
:102AC0008A42616C24BFA26EA26504F144078F4262
:102AD000DED0D1F800C0C4F844C0CCF804700027A0
:102AE0000F6581F84C70D1F808C00F6C3F68D7F8BB
:102AF00008E0E645FAD2D7F804C00F60C1F804C078
:102B0000CCF800107960616D9142C4D1216D00292B
:102B1000C1D0002BC5D0028A013A1340C1D105F1C2
:102B2000740231462846FEF72BFFBAE7E01A01206F
:102B3000113138B550F82140C4B1302383F31188E6
:102B40001F48FFF7E5F8D4F88C241368527903EB9B
:102B50008203DB689B695D684DB92046FEF7C8FEBD
:102B60001748FFF7E5F8002383F3118838BD0421E7
:102B70006018FFF735FFE369616A1D60A06AA2690A
:102B800003448B42E36124BF236BE3610132E368BA
:102B9000A26104F10C029A42DFD01868E0600021C3
:102BA00042601A6C9868196583F84C101268916835
:102BB0008142FBD25168C3E900210B605360CCE72E
:102BC000E01A0120000000000000000000000000EA
:102BD0001A4A38B5D4680546A1688068002388423F
:102BE0002B651ED984F84C30236C1B689868814291
:102BF000FBD35968C4E900310C6001215C6085F8A1
:102C00004C10D2F8D430D56005F17001013304F1D5
:102C10007000C2F8D430FFF783FB2846214600DF5E
:102C200038BD2A6C85F84C30126893689842FBD9FD
:102C30005368C5E900231D60556038BDF0190120B7
:102C4000164B30B403F11004D96144601C698260F2
:102C5000022A046038BF0222606018614FF0804091
:102C60008C184463002404610224C460456AA5EB07
:102C7000010C624503D930BC704729461546013422
:102C800021444163426A511BA142F6D2022CF2D97F
:102C90005A6B42F0010230BC5A637047F0190120B0
:102CA0002DE9F041544D4B1CD5F80C8086B062D014
:102CB0002F46524B064657F8100FCDE903384FF018
:102CC000804C00230593B8420A46DCF8241000F03B
:102CD0008580EB698468CB1AD31828BF13469C42C1
:102CE00023D9022A38BF022201EB020ECCF834E0CD
:102CF000DCF824E0AEEB01018A4298BF022214D82E
:102D0000013202EB0E01CCF83410DCF82410A1EBF8
:102D10000E0E96456BD2022A07D96A6B42F0010269
:102D20006A6302E000681B1B84689C42FAD302932A
:102D300082680090D31A426801926C461460C0E920
:102D400001434FF0FF33AB613046FFF709FB009BB7
:102D500063B12A69A24215D0DDE901109A680B60BF
:102D60000244C3E901124FF0FF33AB61D8F85000C1
:102D700006B0BDE8F081FFF7F3FAD8F8500006B0CE
:102D8000BDE8F0810022BB422B6100925F602AD037
:102D90009A6802994FF080400A449A60416AEB6950
:102DA000CC1AA242E2D95B1A1344022B38BF022389
:102DB000CA184263426A511A994228BF0223D5D3E6
:102DC0000133D1184163416A8A1A9A4211D2022B07
:102DD000CCD96B6B43F001036B63C7E76C462046AD
:102DE000FFF72EFFB0E74FF08043DA60BEE78E4674
:102DF00086E70A46E4E700BFF0190120F126000843
:102E0000F8B50446302383F311882548FEF780FF88
:102E1000A36A0BB3E26A13F8015BA362934207D281
:102E20001F48FEF785FF002383F311882846F8BD6D
:102E30006369E169E2680B44A16963618B4224BF65
:102E4000636A6361013A236BE2600022A262002B95
:102E5000E6D020469847E3E70E46A0F1D80708E001
:102E60006268C3E9004213606360FFF719FF051E43
:102E7000D6DBE368314604203BB9237A63B9FB68AB
:102E8000002EEDD14FF0FF35CAE763691A6803449D
:102E90001A44C4E90A32BEE76FF00105C0E700BF7B
:102EA000C81A01200000000000000000000000001F
:102EB0004FF0FF310C30FFF7A3BF00BF0000000050
:102EC0000C30FFF79DBF00BF0000000000000000B5
:102ED0002DE9F041302304460F4683F311882B4837
:102EE000FEF716FFA36A3BB31F70D4E90A32013321
:102EF0009342A36209D22548FEF71AFF002080F30F
:102F0000118805462846BDE8F081E2692369043A44
:102F10001A60D4E9061003448B42E268236124BF9F
:102F2000636A2361013A236BE2600022A262002BF4
:102F3000E1D020469847DEE71646A0F1D80808E021
:102F40006268C3E9004213606360FFF7A9FE051ED3
:102F50000BDBE3683146042073B9237A9BB9D8F8B8
:102F60000C30002EECD14FF0FF350848FEF7E0FEA4
:102F7000002383F31188C5E72269E16913180A4425
:102F8000C4E90A32B0E76FF00105EEE7C81A012084
:102F90004FF0FF324430FFF79BBF00BF000000003E
:102FA0004430FFF795BF00BF0000000000000000A4
:102FB0002DE9F041302305460E4683F3118813486E
:102FC000FEF7A6FE05F12008A0F1D80706E02B6267
:102FD000C3F85080FFF764FE044658B9AB6ADB695A
:102FE0001B0631464FF003000DD4FB68002EEED1D6
:102FF0004FF0FF340548FEF79BFE002383F3118852
:103000002046BDE8F0810024F4E700BFC81A012083
:103010002DE9F84F1746002A43D00024DFF88880B6
:1030200006460D4699464FF0300BA24649463046BB
:10303000FFF7BEFF024668BB391B8BF31188404681
:10304000FEF766FEB06AC3691B060FD505EB010CDF
:103050002B4601E0634520D013F8011B8162C16952
:10306000090602F10102F5D414441544F3681A0765
:1030700003D5826842F400028260DB0603D5036850
:1030800043F0400303604046FEF752FE8AF3118886
:10309000A742CBD82046BDE8F88FF3681444154406
:1030A000EBE71446F6E700BFC81A01200000000055
:1030B0004FF0FF33FFF7ACBF00000000000000003E
:1030C000FFF7A6BF000000000000000000000000A5
:1030D00070B50E4611460546FFF76AFF044618B95B
:1030E00031462846FEF72CFD204670BD000000004A
:1030F0002DE9F041302306460D4683F311881A4826
:10310000FEF706FEB36AD96940F20F12114222D1CE
:1031100006F11808A0F1D80707E0B361C3F85080A2
:10312000FFF7BEFD044658B9B36ADB699B06294622
:103130004FF003000DD4FB68002DEED14FF0FF34AB
:103140000948FEF7F5FD002383F311882046BDE80A
:10315000F0810024F4E7FEF7EBFD002383F31188F0
:1031600001242046BDE8F081C81A012000000000BB
:103170002DE9F84F1646002A44D00024224F8346FA
:103180000D4698464FF0300AA14641465846FFF793
:10319000AFFF014680BB321B8AF311883846FEF729
:1031A000B7FDDBF82830D869800610D52A44AC4634
:1031B00001E0624523D05B6A0CF8013BDBF8283064
:1031C000D869800601F10101F3D40C440D44DBF809
:1031D0000C20510703D5996841F080519960920500
:1031E00003D51A6842F010021A603846FEF7A0FDB7
:1031F00089F31188A642C8D82046BDE8F88F0C4450
:103200000D44F2E71446F7E7C81A01200000000059
:103210004FF0FF33FFF7ACBF0000000000000000DC
:10322000FFF7A6BF00000000000000000000000043
:1032300010B54FF0FF310446FFF75AFF00B110BD43
:10324000A36A586ADA699206F9D4E268510703D58D
:10325000996841F0805199609205F0D51A6842F062
:1032600010021A6010BD00BF000000000000000046
:1032700010B50446FFF73CFF00B110BDA36A586AC1
:10328000DA699206F9D4E268510703D5996841F0EA
:10329000805199609205F0D51A6842F010021A60C8
:1032A00010BD00BF00000000000000000000000092
:1032B00010B50146302383F31188074C2046FEF7F2
:1032C00027FD0820FFF7ECFC2046FEF731FD002328
:1032D00083F3118810BD00BFC81A01200000000050
:1032E000164C174AE368DFF85C8080B5D8345A641E
:1032F0004FF40057A8F81870302686F3118820463E
:10330000FEF706FDC8210820FFF7CAFC2046FEF79D
:103310000FFD002585F31188A8F81A7086F311882F
:10332000FEF7F6FC42F248610820FFF7B9FC2046A0
:10333000FEF7FEFC85F31188DAE700BFF0190120E3
:103340008CDB0008001000480000000000000000B6
:103350002DE9F84F1D4682460E461746302383F36B
:1033600011884C48FEF7D4FCA0F1D808814600240F
:10337000DAF82810002944D0DAF82C20A7EB040B47
:10338000521A934528BF9346BBF1400F4FD933469D
:1033900001F1400BD1F800C048688A68D1F80CE010
:1033A000C3F80CE010315945C3F800C058609A606A
:1033B00003F11003EED1DAF82830DAF82C2040338C
:1033C000934206F14006CAF8283004F140043DD289
:1033D0004846FEF7ADFC002383F31188BC4223D29C
:1033E000302383F31188FEF793FCC1E7DAF8042059
:1033F000C3E900A21360CAF80430FFF751FC0028AB
:103400000CDBDAF80C3029460420002B3AD19AF86C
:1034100008301BB9D8F80C30002DE7D11D48FEF755
:1034200087FC002383F311882046BDE8F88F3046DF
:103430005A46FDF74FFCDAF82830DAF82C205B44C6
:1034400093425E44CAF828305C44C1D3DAE90621CD
:10345000DAF81430DAF80C000B449342CAF814304E
:1034600024BFDAF82430CAF81430DAF830300138E2
:103470000022CAF80C00CAF82820002BA8D0504619
:103480009847A5E7DAF814100A6801440A44CAE923
:103490000A1273E7C81A01200000000000000000B3
:1034A0004FF0FF330C30FFF753BF00BF00000000A8
:1034B0000C30FFF74DBF00BF00000000000000000F
:1034C0002DE9F84F1E4604468A461746302383F3FB
:1034D00011884248FEF71CFCA0F1D808814600255F
:1034E000A06A00283DD0E26AA7EB050B121A9345AB
:1034F00028BF9346BBF1400F514646D90AF1400A16
:10350000D1F800E0D1F804C08A68CB68C3601031FC
:103510005145C0F800E0C0F804C0826000F110001E
:10352000EED1A36AE26A403393428A46A36205F170
:10353000400535D24846FEF7FBFB002383F3118894
:10354000BD421FD2302383F31188FEF7E1FBC7E7AA
:103550006268C3E9004213606360FFF7A1FB0028C3
:103560000ADBE36831460420002B30D1237A1BB9F3
:10357000D8F80C30002EEBD11848FEF7D9FB002309
:1035800083F311882846BDE8F88F5A46FDF7A2FB61
:10359000A36AE26A5B449342DA44A3625D44C9D3FE
:1035A000E2692369043A1A60D4E906210B44934284
:1035B0002361E06824BF636A2361236B0138002222
:1035C000E060A262002BB5D020469847B2E72069A0
:1035D000E26902440430C4E90A0285E7C81A0120FE
:1035E0004FF0FF334430FFF76BBF00BF0000000017
:1035F0004430FFF765BF00BF00000000000000007E
:103600002DE9F04130230546884683F3118812489E
:10361000FEF77EFBA0F1D80705F1200606E0FC6866
:103620002C622665FEF79CFE246D34B9AB6ADB691B
:103630001B064FF00300F2D500240748FEF778FB85
:10364000002383F311881CB941462846FEF778FA17
:103650002046BDE8F08100BFC81A0120000000002C
:103660002DE9F0413023044683F31188194F07F107
:10367000D8063046FEF74CFBD4E9085303202070EF
:10368000D7F80CC0E76A5B686D68D4F828E004F1ED
:10369000300847F08007C5F80C806960C5F800E085
:1036A000DA6059601F602A6842F001022A601A68D5
:1036B00042F001021A6044F808CFCCF85040FEF7FF
:1036C0004FFE3046FEF734FB002383F31188BDE83C
:1036D000F08100BFF0190120000000000000000090
:1036E0002DE9F0411A4DAB6801241C70AB680278DB
:1036F0005A706B684FF030081A6888F31188154FBC
:103700003846FEF705FB5268D2E9032304FA03F3B7
:103710009BB25383FEF70CFB002686F311886B687F
:10372000AA6818680221FFF79BFF6B681A6888F384
:1037300011883846FEF7ECFA5368D3E903239C401E
:10374000A4B21483FEF7F4FA86F31188BDE8F08181
:10375000C0110020C81A0120000000000000000075
:103760000EB42DE9F04F92B01BAB53F804AB0B93A2
:103770005546019315F8011B002900F0C7828046C9
:103780004FF000090DE0D8F800304046DB6898475C
:1037900009F10109AA46554615F8011B002900F058
:1037A000DE802529EFD19AF801302D2B06BF0AF1D2
:1037B00002050123002300932B782B2B03BF6B788A
:1037C0004FF0010B01354FF0000B302B03BF0135DB
:1037D0001E462B7820262A2B4BD16B78019F2E2B4F
:1037E00057F8044B05F1020A59D0002503F0DF0217
:1037F0004C2A64D0A3F14102A3F14401D2B234298E
:1038000000F2B480DFE811F00B02B200B200B200A7
:10381000B2000B02B200B200B200B200B200170157
:10382000DF00B200B200B200B2006402B200B20027
:10383000DF00B200B200B200B200B200B200B200CB
:10384000B200B200B200C1010B02B2001A01B20014
:10385000B2000B02B200B200B200B200B200170117
:10386000DF00B200B200C901B2006402B200B200CF
:10387000DF0005F1010A002B71D0002405E01AF8E1
:10388000013B02EB4104002B69D0A3F13002D2B21C
:10389000092A04EB8401F2D92E2B019FA5D19AF8B5
:1038A0000030002B5BD02A2B48D19AF8013057F812
:1038B000045B03F0DF024C2A0AF1020A9AD11AF8DB
:1038C000013B002B4BD0A3F14402342A4ED8DFE851
:1038D00012F0DC014D004D004D004D00DC014D00AB
:1038E0004D004D004D004D00B2007A004D004D00DE
:1038F0004D004D00FF014D004D007A004D004D0080
:103900004D004D004D004D004D004D004D004D004F
:103910005C01DC014D00B5004D004D00DC014D00A7
:103920004D004D004D004D00B2007A004D004D009D
:1039300064014D00FF014D004D007A000AF1010ABB
:103940000025A3F13002D2B2092A05EB85013FF62A
:103950004DAF1AF8013B02EB4105002BF1D14B466C
:10396000184612B0BDE8F04F03B070478DF8303004
:10397000013C0197009B24EAE47523B9002CC5F1B2
:10398000000500F38F814FF0000B0CAF0BF1010429
:103990003C44D8F8003017F8011BDB6840469847D4
:1039A000A742F6D109F10109D944002D3FF4F3AE45
:1039B0002C46D8F800303146DB6840469847013C39
:1039C000F7D1A944E7E64FF0100C3B460DF13B0B55
:1039D00053F8040B0193594600E011460546B0FB2D
:1039E000FCF00CFB105707F13003392BC8BF07F16F
:1039F0003703DBB2654501F1FF3201F8013CECD23F
:103A00000CAFABEB0202384601E011F8013B00F8C5
:103A1000013B5945F9D1A41A02F1FF3B009B24EA6E
:103A2000E47523B9002CC5F1000500F3D680BBF185
:103A3000000FABDAB9E74FF0080CC6E7073727F0FD
:103A40000703F3E802010193FDF73AFC002104901B
:103A5000FDF7D4FC049B002840F02981BBF1000F46
:103A600000F051812B228DF830200DF131020492AB
:103A70000CAF18460593FCF7D7FD013D082DCDE9A5
:103A80000201059B00F22781A74A52F825B0CDF824
:103A90001CB05846FCF7A6FDA44DCDE90801A5FBD6
:103AA0000B35059BED081846FDF7EEF8049BDFF893
:103AB0007CC2059003F10B0E01467246ACFB01037C
:103AC000DB0803EB830B1846A1EB4B0330338B462B
:103AD000DBB2BBF1090F02F8013D0146EED80499B3
:103AE000AEEB020E01EB0E0001E012F8013F01F80F
:103AF000013B8142F9D12E23DDF810B001F80C3BD7
:103B00000EF1FF3EF3440598CDF818B00491FCF790
:103B100079FD02460B46DDE90201FCF725FCDDE9F3
:103B20000823FCF7D9FDFDF787F8079BDFF8FCC1F8
:103B30000499092B98BF05465B460233ACFB00E2B3
:103B4000D20802EB820B9646A0EB4B023032704655
:103B5000AE46D2B2ACFB05B5BEF1090F01F8012D9E
:103B60004FEAD505EAD80498069D401A023005446C
:103B7000284601E011F8012F03F8012B8342F9D107
:103B8000DB1BE41A03F1FF3B48E757F8043B0197BE
:103B9000013C8DF830302026ECE63B4653F8047BA0
:103BA0000193002F00F08D803A78002D00F09C806A
:103BB000002A00F09B80013D00F198803A4601E028
:103BC000E94204D412F8013FB91A002BF8D1D21BF4
:103BD000A41A02F1FF3B202620E72C4639782D2934
:103BE00010D02B290ED0D8F800303146DB68404683
:103BF00098470135F7D1BBF1000FA9EB0409BFF6D7
:103C0000C5AEC8E5302EEED1D8F800204046D268C7
:103C1000013709F101090BF1FF3B9047E3E7192A4E
:103C200033D93B4653F8041B0193002932DBBBF127
:103C3000000F65D02B238DF830300CAF0DF1310320
:103C400003F10B0CDFF8E4E06046AEFB0152D20852
:103C500002EB820B1546A1EB4B0230328B46D2B2FF
:103C6000BBF1090F00F8012D2946EEDCACEB000199
:103C7000194401E010F8012F03F8012B8B42F9D110
:103C8000DB1BE41A03F1FF3BC8E657F8041B01975E
:103C90000029CCDA2D238DF8303049420DF1310363
:103CA0000CAFCDE7DDF800B02C460CAF96E72D2227
:103CB0008DF830200DF1310203F1004304920CAF76
:103CC000D7E61B4F002D7FF476AF47F6FE7575E7FC
:103CD0004FF00A0C79E6174A079211A2D2E90012B6
:103CE000154DCDE90812DEE6002AEED1009B24EA4C
:103CF000E4751BB9002CC5F1000509DC202654E64B
:103D00000CAF3B469CE70CAF0497B2E60B4627E6A8
:103D10002C464FF0FF3B202660E700BFAFF300804A
:103D20000000000065CDCD4138E70008CDCCCCCCFB
:103D3000BCEE000800CA9A3B00E1F5050000000057
:103D400000292EDC10B5194A194982B00446FFF744
:103D500007FD184A18492046FFF702FD174A18497F
:103D60002046FFF7FDFC174A17492046FFF7F8FCED
:103D7000164A17492046FFF7F3FC164A1649204613
:103D8000FFF7EEFC154A16492046FFF7E9FC1548F7
:103D90000090154B154A16492046FFF7E1FC02B08A
:103DA00010BD144A1449FFF7DBBC00BFA4DB0008B8
:103DB000ACDB0008C0DB0008E0DB0008F4DB000837
:103DC00004DC000818DC000824DC000838DC0008EB
:103DD00054DC000868DC000884DC000898DC00087B
:103DE000C0DC0008FCDC0008D4DC0008D8DC0008DB
:103DF000E4DC000890DB000898DB0008000000000D
:103E0000012903D0034A0449FFF7AABC12680349F9
:103E1000FFF7A6BC08DD000898DB000818DD0008E5
:103E2000002905DC4FF0804303495A6AFFF798BC2C
:103E3000024A0349FFF794BC28DD000820DD000892
:103E400098DB0008000000000000000000000000F7
:103E5000002933DCF8B51D4C074604F10C00FEF7D1
:103E6000FFFC636873B3002422462646D3E9003181
:103E70008C4206F101060A4438BF0C46002BF5D1EE
:103E8000D500E4001248FEF763FD124B1249D3E956
:103E900000323846D21AFFF763FC32460F493846E3
:103EA000FFF75EFC2A460E493846FFF759FC2246CA
:103EB00038460C49BDE8F840FFF752BC0A4A0B49A6
:103EC000FFF74EBC1C461D461E46DBE7FC1B0120CF
:103ED000081C0120E01B012034DD000854DD00082F
:103EE0006CDD00088CDD000830DD000898DB000880
:103EF000002900F38A802DE9F04F694989B0814695
:103F0000FFF72EFC302383F3118866488246D830B1
:103F1000FDF7FEFE5AF8283F9A7D01329A75A3F10B
:103F20003804FDF705FF002383F31188DFF878B12B
:103F3000074694F84C005D4E616C56F820005C4ECC
:103F400094F84E50236C002908BF3146D4E902C6CC
:103F5000013D1A6BA36CCDF80CC0CDE90401CDE98D
:103F60000145009659464846FFF7FAFB302383F394
:103F700011883846FDF7CCFEA36B534543D09A7D9C
:103F80000132A3F138069A753846FDF7D1FE0025B7
:103F900085F311884FF0300888F31188FDF7B8FEDB
:103FA00094F84E30013B84F84E30E36C03F0FF137D
:103FB0000F2B06D0FDF7BCFE85F3118806B33446FF
:103FC000B7E7D4E90E3213605A60FDF7B1FE85F30E
:103FD000118894F84D3003F00303012B19D0022B04
:103FE000ECD1E26EA16C88F31188FDF791FE1368A5
:103FF0000B601160FDF79CFE85F31188002EDED169
:1040000009B0BDE8F08F0026BEE72A4A2A49FFF72B
:10401000A7BBD4F8488058F8043C58F8085C07332C
:10402000DB0805F10C0048F8043C07900435FEF766
:1040300017FC0798A8F1080429468D420B6801D0A7
:104040008C4202D91BB19C4201D31946F5E748F8CE
:10405000083C58F8043C0C6058F8085C013304EB49
:10406000C302954208D04A68531C01EBC3039C422B
:104070000FD0FEF76DFCA1E76A68134448F8043CD2
:104080004A682B6848F8083C531C01EBC3039C4268
:10409000EFD158E9024301331A440C604A60E8E763
:1040A000B4DD0008F0190120F8DD000824E800085C
:1040B00010E40008ACDD000898DB000800000000F8
:1040C000002900DC70470149FFF74ABB24DE0008E5
:1040D0002DE9F84F3349344C344DFFF741FB4FF491
:1040E000004B4FF480434FF4805A4FF4005943F68D
:1040F000FF7223834FF03008A4F818B0A4F818A07A
:10410000A4F818906A6188F31188294F3846FDF7A2
:10411000FFFD42F210710820FEF7C2FD3846FDF7A0
:1041200007FE002686F311884FF440526A6188F337
:104130001188FDF7EDFD42F210710820FEF7B0FD89
:104140003846FDF7F5FD86F31188C5F8149088F31D
:104150001188FDF7DDFD42F210710820FEF7A0FD89
:104160003846FDF7E5FD86F31188C5F814A088F3FD
:104170001188FDF7CDFD42F210710820FEF790FD89
:104180003846FDF7D5FD86F311884FF480436E6104
:104190006383A4F81AB0A4F81AA0A4F81A90BDE892
:1041A000F88F00BF34DE000800100048000400480B
:1041B000C81A0120000000000000000000000000FC
:1041C0000149FFF7CDBA00BF4CDE00080000000037
:1041D00008B50949FFF7C4FA6420FFF769F8BFF38F
:1041E0004F8F0649064BCA6802F4E0621343CB6066
:1041F000BFF34F8F00BFFDE770DE000800ED00E069
:104200000400FA05000000000000000000000000AB
:10421000F0B5013A83B00F4604460D468E18236868
:1042200001229B680DF107012046984740B39DF895
:104230000710082910D07F290ED00D2923D01F295F
:10424000EDD9B5422046EAD22368DB6898479DF84D
:10425000073005F8013BE2E7BD424FF00801204678
:10426000DDD02368DB68984723682021DB6820467F
:10427000984723680821DB682046013D9847CEE730
:10428000012003B0F0BD04492046FFF769FA002081
:10429000287003B0F0BD00BF18E300080000000064
:1042A00070B50D46B8B1044628601249204609F0A1
:1042B00041FC215C222904EB000612D00D49304656
:1042C00009F01CFC98B1421C00232A60037033786B
:1042D00023B1304670BD0C68002CE6D10026304674
:1042E00070BD0136304609F0A3FB0028EBD12860F1
:1042F000EDE700BF8CDE00080000000000000000B9
:104300002DE9F04FDFF8A8910668D9F80C30416824
:10431000684A5A6499B08046019130466649FFF771
:104320001FFA66493046FFF71BFAD9F80C3093F8AC
:104330004D305A0774D4DFF888A1DFF888B116E051
:10434000302383F311886048FDF7E2FC4FF47A7163
:104350000820FEF7A5FC5C48FDF7EAFC002383F388
:104360001188D9F80C3093F84D305B0758D451467A
:104370003046FFF7F5F9D8F80000402208A9FFF70A
:1043800047FF0028DCD102A9044608A8FFF788FFF0
:1043900002A90746002003ADFFF782FF50B1042CAD
:1043A0004ED045F8040B02A900200134FFF778FF36
:1043B0000028F4D118AB03EB840343F8540C002F0E
:1043C000CFD059463846FCF72FFD00283FD1002CAE
:1043D0004ED13E493E4C3F4D3046FFF7C1F93E4A73
:1043E00029463046FFF7BCF954F8082F002AF7D1C8
:1043F000019B5BB11A684AB1364D1C4629463046CE
:10440000FFF7AEF954F8082F002AF7D12A493046B1
:10441000FFF7A6F9D9F80C3093F84D305B07A6D515
:10442000302383F3118828480021FDF771FC2B48C5
:10443000FEF7D6FA0846FEF7D3F919B0BDE8F08FBB
:1044400027493046FFF78CF90023079389E7204D71
:10445000214802E055F8080F80B13946FCF7E4FC2A
:104460000028F7D16B6803AA21463046984778E7C1
:104470001C495A463046FFF773F972E7019B63B156
:10448000186850B11D4602E055F8080F28B13946AA
:10449000FCF7CAFC0028F7D1E4E713493A46304656
:1044A000FFF75EF911493046FFF75AF959E700BFA7
:1044B000F019012090DE000818E3000898DE0008DB
:1044C000ACDE0008D8DE0008C81A0120E0DE0008D3
:1044D000F4E70008F0DE000890DB0008201D012052
:1044E000C0DE000898DB0008F4DE0008F8DE0008F3
:1044F000F8B5052958D8DFE801F003576D030358D4
:10450000302383F31188704C7048FDF701FC237D44
:104510001BB194F84C30002B40D16D480221FEF7BE
:104520005FFAE168083001238142237517D06FF0EC
:10453000010C00270B4609689E681A6CE160486010
:10454000C3F850C083F84C7012689568B542FBD22E
:1045500055688142C3E900252B605360EAD1616C44
:104560005C480123814284F84C3017D06FF0010C75
:1045700000270B4609681A6C9E6861644860C3F89E
:1045800050C083F84C7012689568B542FBD25568EC
:104590008142C3E900252B605360EAD14B48FDF707
:1045A000C7FB002383F31188F8BD302383F3118800
:1045B000454D4648FDF7ACFB0121281DFEF710FADA
:1045C000002442482C7585F84C40FDF7B1FB84F37C
:1045D0001188F8BD0246302383F311883B483E49D9
:1045E000394CFDF795FB3D4B3D48106100261046C8
:1045F000C1E90066C1E90266C3E90066C3E9026673
:104600000121FDF7B5FA374B374A4261C3E900662D
:10461000C3E902660221FDF7ABFA2046236B50F88E
:104620000C1FA6618142C4E90733C4E90D6616D0A8
:104630006FF0010C0B4609689F681A6CE1604860D6
:10464000C3F850C083F84C6012689568BD42FBD235
:1046500055688142C3E900252B605360EAD1636E3F
:10466000616C1C482365A36E00278142C4E91533A1
:10467000C4E91B77277516D06FF0010C0B4609684B
:104680001A6C9E6861644860C3F850C083F84C702F
:1046900012689568B542FBD255688142C3E900258E
:1046A0002B605360EAD10A480121002584F84C5060
:1046B000FEF796F90438FDF71BF90448FDF738FBBF
:1046C00085F31188F8BD00BF6C130120E01A0120AA
:1046D00070130120B0130120B81C0120C81C012058
:1046E000DCE60008D81C012000E7000800000000FC
:1046F0002DE98048094F0A4AFB680A4CDFF82880F8
:104700000A4D0B4E5A6485B00A4A002313703023B9
:1047100083F311880848FDF7FBFA22E0F019012025
:1047200000DF000820130120C01100200004024017
:104730000034014048130120C81A01202369002BCE
:1047400040F0C881D7F80C90636ABA4AC9E90023DF
:10475000C3F80090C4F82490FDF702FED9F8503059
:104760001BB9237D0420002BE8D0B348FDF7E0FA05
:104770004FF0000A8AF31188B04BDDF800E0DFF853
:10478000C0924FF001021A70BEE80F00CC46ACE8B0
:104790000F009EE803004FF0300B8CE803008BF312
:1047A0001188A849A448FDF7B3FA009A0B68136072
:1047B0000A60FDF7BDFA8AF31188A34B99F814B08B
:1047C0004FF400421A834FF480425A835846FBF755
:1047D00009FF03F053F9FCF753FD0346CBF10E003C
:1047E0001FFA83FBFBF70EFF03F048F9FCF724FAEE
:1047F00099F810E0954BBEF1020FA3F800A000B2AB
:1048000000F01181BEF1040F00F00D81BBF1000F2B
:1048100018D08E4A1FFA80FC02EB4B0113886344C8
:104820009BB222F8023F8A42F8D14FF6FF729342C0
:1048300000F01E81B3F5804F04D1844A43F6FF7324
:1048400022F81B30AEF1030EBEF1010F40F21A81C7
:104850007F4B80491868FEF783FF7C4A7E4B1288A5
:104860005A6100BF00BFD8F804301A694FF0010A3E
:1048700002F00F030AFA03F322F00F029BB2138334
:1048800000BF00BFD8F804301A6902F00F030AFA1B
:1048900003F322F00F029BB25383002103A88DF88B
:1048A0000C10FEF71DFFD8F80430DA69022388F8EF
:1048B000003002F00F030AFA03F322F00F029BB25A
:1048C00053834FF4FA7300BF013BFCD1D8F8043096
:1048D000B9F812A01869012300F00F0103FA01F1E1
:1048E00040F2022220F00F00FDF7C2F85B4B5C495A
:1048F0009A6CDFF870C142F002029A645A4AC5F815
:104900000CB029616A61AA6842F4565242F0100262
:10491000AA609A6C42F004029A64DCF8202842F003
:104920003102CCF82028AA6842F00102AA601A6E6F
:104930000AF1FF314FEA5A0042F400521A66F1625E
:104940007063F36843F40073F360336A43F0010368
:104950003362B36943F06003B361736C43F40043A3
:104960007364336843F001033360EB681BB100BF2D
:10497000EB68002BFBD199F81030033B012B40F280
:10498000DB804FF0C80900BFB9F10109FBD1D8F8AD
:104990000430C6F80090C5F808901869012200F0AC
:1049A0000F0102FA01F120F00F009246FDF760F8C6
:1049B000D8F80430DA6902F00F030AFA03F322F0A0
:1049C0000F029BB2138303A84FF0080A8DF80CA0C6
:1049D000FEF786FE4FF0010388F800301C4B234998
:1049E0001868FEF7BDFE4FF0300B8BF311881248AC
:1049F000FDF78EF9238A0193FDF79AF989F311885F
:104A0000019B002B00F08B808BF31188FDF780F960
:104A100042F210715046FEF743F90748FDF788F956
:104A200089F3118870E6094A404243F6FF7300B2E9
:104A30001380EBE640130120C81A0120481301201F
:104A4000E01101201013012000100048E0110020A7
:104A5000F41B012008DF0008000400480010024099
:104A60001404004800000240E211002024DF000886
:104A70005D4AAEF1030E0023BEF1010F22F81B3098
:104A80003FF6E6AE0BF1010CBCEB4B0F4FEA4B0EC1
:104A900000F39F80544B80B203EB0E0203EB8B01BB
:104AA00013881B1A9BB222F8023F9142F8D16FEA99
:104AB0000B029644E6444FF6FF72934200F0848066
:104AC000B3F5804F7FF4C4AE474A43F6FF7322F834
:104AD0001E30BDE6E16860680A1D013B096800916F
:104AE000824242492361A369E26024BF2268E260F6
:104AF0008B4211D01A68A261516000221A6583F8B6
:104B00004C2098681A6C126891688142FBD25168F7
:104B10001A6059600B605360FDF732FE25E6344B96
:104B200034491868FEF71CFE334B4FF400425A8399
:104B30004FF480421A83E7E5D9F8049000214846F3
:104B4000FCF77AFC98B9AB6823F00103AB60264B05
:104B5000C5F80CB00BF1010B03EB4B036B61AB68B9
:104B600043F00103AB60EB68002BFCD109E748463A
:104B7000FBF75AFD1AA3D3E90023FBF7ADFD02F0C2
:104B800033FF1E4BD3F80C900223C9F800300022EB
:104B90001B4BFBF7E9FBFCF773FB01230138C9F85A
:104BA0002C00C9F814300023C9F810300D23C9F8BF
:104BB0000030D9F81030DB07FBD500230F4AC9F8C5
:104BC000103002231370BEE7074A002322F81E307C
:104BD0003EE6054BDE4633F81B306CE7AFF3008052
:104BE0000000000080842E41E011002038130120D5
:104BF000F41B012040DF0008001000485C13012076
:104C0000000008400000000000000000000000005C
:104C10002DE9F04F8B1E012B8BB0044600F2A880CB
:104C20001568894628466249904608F0DBFE002850
:104C30006CD10125D8F804603046FCF761FA3044A5
:104C400010F8013C732B40F08C803046002105F0B9
:104C50004BF8FBF7E9FCD8F804A0064650460F468F
:104C6000FCF74EFA82441AF8023C752B08D1304604
:104C700039464BA3D3E90023FBF72EFD06460F462A
:104C80000022002330463946FBF7A2FF8246002867
:104C900040F0B881B9F1030F40F0A880D8F808902F
:104CA0004846FCF72DFA484410F8013C732B40F0BD
:104CB00094815146484605F017F8FBF7B5FCD8F843
:104CC0000880824640468B46FCF71AFA804418F862
:104CD000023C752B08D15046594631A3D3E9002335
:104CE000FBF7FAFC82468B462FA3D3E900235046FC
:104CF0005946FBF763FF38B92E4B00225046594600
:104D0000FBF77AFF002875D02B492BE02B4928466A
:104D100008F068FE00288CD02949284608F062FE79
:104D2000002800F058812749284608F05BFE00283B
:104D300000F051812449284608F054FE002800F074
:104D4000C3812249284608F04DFE002800F0BC81AE
:104D50001F49284608F046FE002840F01582042529
:104D600068E71C4920460BB0BDE8F04FFEF7F8BCE1
:104D70001949FEF7F5FC19492046FEF7F1FC1849E0
:104D80002046FEF7EDFC17492046FEF7E9FC1649E0
:104D900020460BB0BDE8F04FFEF7E2BCAFF3008059
:104DA0008DEDB5A0F7C6B03E337678BE558DD43EB6
:104DB00058E000080040AF4018E1000860E000083B
:104DC00064E000086CE0000870E0000878E000088B
:104DD0007CE000089CE0000854DF00086CDF00085D
:104DE000CCDF0008F8DF000818E00008DFF800B3A7
:104DF0004FF0000ABF4B012230461A703946B4A367
:104E0000D3E90023FBF768FC02F040FEB2A3D3E92C
:104E10000023FBF78BFD8046894602F0E5FDFCF799
:104E20002FFAC6B2012E38BF01260E2E28BF0E263D
:104E30003046FBF7E7FB02460B4640464946FBF788
:104E400093FA0022002380468946FBF7B7FE18B18B
:104E50004FF000084FF000094046494602F00EFEB0
:104E6000A54B0022FBF738FC02F0BEFDFCF708FA68
:104E700087B2A248B0FBF7F0FBF7C4FB8046304690
:104E80008946FBF7AFFB02F0F9FD42464B46FBF7C4
:104E90004DFD012D02460B46CDE9042390A3D3E935
:104EA000002300F0C880022D00F04881032D00F09F
:104EB000AB80FBF711FC02460B4640464946904644
:104EC000994687A3D3E90023FBF730FD0096CDE98F
:104ED000020142468A494B462046FEF741FC82A326
:104EE000D3E9002350465946FBF786FE00287BD1C4
:104EF00084492046FEF734FC07A90A222046FFF722
:104F000087F9814907A808F06DFD002867D1302393
:104F100083F311887D48FCF7FBFE7D4BD3F80080BE
:104F2000B8F1000F00F09E80D8F800201A60774892
:104F3000FCF7FEFE4FF0000989F31188B8F1000F6D
:104F400000F019810023C8F80830C8F80C30DDE9FA
:104F50000401FCF7B5F95946C8F800005046FCF7C3
:104F6000AFF988F81050C8F8040088F81460A8F861
:104F70001270302383F311886448FCF7C9FE654B37
:104F80001E7D002E40F00281D3E900511A694F1BAB
:104F9000B2EBA70F6ED1FCF7CBFE86F311885E490A
:104FA0002046FEF7DDFB5D492046FEF7D9FB3023A6
:104FB00083F311885548FCF7ABFE42F210710820CC
:104FC000FDF76EFE5148FCF7B3FE002383F3118812
:104FD0000BB0BDE8F08F02252CE65149C2E65149DD
:104FE0002046FEF7BDFBF3E73DA3D3E9002350467F
:104FF0005946FBF771FB02460B4620464A49FEF72D
:10500000AFFB75E74949ADE6FBF766FB02460B4689
:10501000404649469046994631A3D3E90023FBF721
:1050200085FC0096CDE90201424641494B462046A7
:10503000FEF796FB53E7FBF74FFB02460B46404655
:1050400049469046994626A3D3E90023FBF76EFC18
:105050000096CDE90201424636494B462046FEF70E
:105060007FFB3CE7DA68002A7FD0D3E90101904753
:1050700080465CE79C68201D81429860196A2E4832
:10508000C4F8008002F1010298BF9D6081421A615C
:1050900011D00C681C62002260600B6C88680A6585
:1050A00081F84C201B689A688242FBD25A68C1E999
:1050B000003211605960FDF763FB1448FCF738FEBD
:1050C000002383F3118872E70325B3E5AFF3008073
:1050D0000000000084D77741EF39FAFE422EE63F08
:1050E0000000000080842E419A9999999999B9BF3E
:1050F0000000F0BFF81B01200000204000C2EB0BB5
:1051000024E20008A0E200081CE30008C81A0120FD
:10511000101301202013012040E3000878E3000869
:10512000F4E0000824E3000878E20008C4E0000886
:10513000D0E100084CE1000840130120FBF7CCFA55
:1051400002460B46404649469046994612A3D3E98B
:105150000023FBF7EBFB0096CDE902014246104924
:105160004B462046FEF7FCFAB9E60492FCF7E0FD58
:10517000049A82F311880B492046FEF7F1FA0A4996
:105180002046FEF7EDFA23E70849EBE5FCF7D0FDF2
:1051900089F3118803E700BF0000000080842E41DE
:1051A0008CE1000840E3000878E3000880E0000894
:1051B000704700BF00000000000000000000000079
:1051C000704700BF00000000000000000000000069
:1051D000FEE700BF0000000000000000000000002B
:1051E000F8B5154D154F16491648174A05F17004C4
:1051F00081420DD9043A034652F8046F43F8046B18
:105200009942F9D84B1E1B1A23F0030304331844A8
:10521000874207D97A1E121A22F0030204320021B3
:1052200006F07AFAA54205D0D5E90420D5E906179B
:105230001035DDE7F8BD00BF5CE7000874230120EE
:105240007423012074230120A4F80008000000004A
:105250000148FCF76DBD00BFC81A01200000000026
:10526000F0B5454E87B0054606F10C000C46FDF73B
:10527000F7FA7368BBB1371D00E01346596803F1B4
:105280000F0C2CF0070C4A1C03EBC202ACF1080017
:105290009042A2EB0C0E02D2BEF50A6F35D81A6806
:1052A0001F46002AE9D13548FDF752FB336853B356
:1052B0000822114640F6A8009847074618B340F662
:1052C000A80340E9026307F6A8022D4B029281224F
:1052D000CDE90323CDE900570594302383F31188EA
:1052E000FCF71EFD6846FCF7B3FC012380F84D3047
:1052F0000446FDF76DFCFFF7ABFF002383F3118835
:10530000204607B0F0BD0024FAE798421AD840F2D0
:10531000151081422CD003F6B801521AD210C3F8EE
:10532000B4281A68C3F8B02803F50B623A6018462F
:10533000074640F6A803436047F8086B0F48FDF79F
:1053400007FBC0E703F10802821AD2105A6040F648
:10535000A8029645ECD94FEAEE02A2F58B721968C5
:10536000C0F8B4280CF6A802C0F8B0181A60DFE73D
:105370001A683A601846DBE7FC1B0120081C012074
:1053800001430008000000000000000000000000D1
:10539000F8B505461E46302484F311888839FCF799
:1053A000BFFC6818A0F1200385641F4DC36040F85E
:1053B000085C1E4B1E4D82604564012504618266B7
:1053C000002480F84E500222DD6AA0F84C206FF0D5
:1053D0000201C0E90564416300F1540600F138019F
:1053E00003F128024FF0807740F8047C0364826365
:1053F000C0E91844C56300F15802296000274665DA
:10540000D96200264FF0FF33C0E91622C0E92067B9
:10541000C0E91C34C0E91E44FDF7DAFBFFF718FFB2
:1054200084F31188F8BD00BF49030008F01901207A
:1054300094E30008000000000000000000000000ED
:10544000302383F31188224AD2F8D030013300216F
:10545000C2F8D03081F311881E4A536903F001036A
:105460005361002B2ED070B51B4CA3680BB1E068C4
:105470009847302383F311881848FCF749FC2168CA
:10548000A14214D000260B4609681A6C9D68216061
:105490004C601E6583F84C6012689068A842FBD28D
:1054A0005068A142C3E9002003605360EBD10B4870
:1054B000FCF73EFC002383F31188094B4FF0805228
:1054C0005A6070BD064B4FF080525A60704700BF63
:1054D000F019012000040140EC180120E01A01201D
:1054E00000ED00E0000000000000000000000000EF
:1054F000F8B5302383F311881E4AD2F8D030013337
:105500000021C2F8D03081F311881B4A536903F09F
:10551000020353614BB3194FBB690BB1F86998474C
:10552000302383F311881648164CFCF7F1FB3969D8
:10553000A14214D000260B4609689D681A6C396197
:105540004C601E6583F84C6012689068A842FBD2DC
:105550005068A142C3E9002003605360EBD10848C2
:10556000FCF7E6FB002383F31188074B4FF08052D2
:105570005A60F8BDF019012000040140EC18012028
:10558000E01A0120FC18012000ED00E000000000FE
:10559000F8B5302383F311881E4AD2F8D030013396
:1055A0000021C2F8D03081F311881B4A536903F0FF
:1055B000040353614BB3194FBB6A0BB1F86A9847A8
:1055C000302383F311881648164CFCF7A1FB396A87
:1055D000A14214D000260B4609689D681A6C3962F6
:1055E0004C601E6583F84C6012689068A842FBD23C
:1055F0005068A142C3E9002003605360EBD1084822
:10560000FCF796FB002383F31188074B4FF0805281
:105610005A60F8BDF019012000040140EC18012087
:10562000E01A01200C19012000ED00E0000000004C
:10563000F8B5302383F311881E4AD2F8D0300133F5
:105640000021C2F8D03081F311881B4A536903F05E
:10565000080353614BB3194FBB6B0BB1F86B984701
:10566000302383F311881648164CFCF751FB396B35
:10567000A14214D000260B4609689D681A6C396354
:105680004C601E6583F84C6012689068A842FBD29B
:105690005068A142C3E9002003605360EBD1084881
:1056A000FCF746FB002383F31188074B4FF0805231
:1056B0005A60F8BDF019012000040140EC180120E7
:1056C000E01A01201C19012000ED00E0000000009C
:1056D000F8B5302383F311881E4AD2F8D030013355
:1056E0000021C2F8D03081F311881B4A536903F0BE
:1056F000100353614BB3194FBB6C0BB1F86C984757
:10570000302383F311881648164CFCF701FB396CE3
:10571000A14214D000260B4609681A6C9D683964B2
:105720004C601E6583F84C6012689068A842FBD2FA
:105730005068A142C3E9002003605360EBD10848E0
:10574000FCF7F6FA002383F31188074B4FF08052E1
:105750005A60F8BDF019012000040140EC18012046
:10576000E01A01202C19012000ED00E000000000EB
:10577000F8B5302383F311887F4AD2F8D030013353
:105780000021C2F8D03081F311887C4B5C6904F4AD
:105790007872A5065A612BD5794DAB6D0BB1E86DCA
:1057A0009847302383F311887648774EFCF7B0FA98
:1057B000296DB14216D04FF0000C0B4609681A6CE7
:1057C0009F6829654E60C3F850C083F84CC01268CA
:1057D0009068B842FBD25068B142C3E90020036030
:1057E0005360EAD16748FCF7A3FA002383F31188DA
:1057F00060062BD5624DAB6E0BB1E86E9847302337
:1058000083F311885F48614EFCF782FA296EB1423A
:1058100016D04FF0000C0B4609681A6C9F68296679
:105820004E60C3F850C083F84CC012689068B8420C
:10583000FBD25068B142C3E9002003605360EAD153
:105840005048FCF775FA002383F3118821062BD505
:105850004B4DAB6F0BB1E86F9847302383F3118842
:1058600048484B4EFCF754FA296FB14216D04FF01E
:10587000000C0B4609681A6C9F6829674E60C3F8D4
:1058800050C083F84CC012689068B842FBD2506890
:10589000B142C3E9002003605360EAD13948FCF704
:1058A00047FA002383F31188E2052FD5344DD5F84C
:1058B000883013B1D5F88C009847302383F31188D2
:1058C0003048344EFCF724FAD5F88010B14217D096
:1058D0004FF0000C0B4609681A6C9F68C5F88010E1
:1058E0004E60C3F850C083F84CC012689068B8424C
:1058F000FBD25068B142C3E9002003605360E9D194
:105900002048FCF715FA002383F31188A3052DD551
:105910001B4DD5F8983013B1D5F89C00984730232B
:1059200083F3118817481C4CFCF7F2F9D5F8901056
:10593000A14215D000270B4609681A6C9E68C5F86D
:1059400090104C601F6583F84C7012689068B042EC
:10595000FBD25068A142C3E9002003605360EAD142
:105960000848FCF7E5F9002383F311880B4B4FF04F
:1059700080525A60F8BD00BFF019012000040140B8
:10598000EC180120E01A01203C1901204C190120DB
:105990005C1901206C1901207C19012000ED00E048
:1059A000F8B5302383F311889E4AD2F8D030013302
:1059B0000021C2F8D03081F311889B4B5D6905F45A
:1059C0007C426E055A612FD5984CD4F8A83013B19B
:1059D000D4F8AC009847302383F311889448954E4F
:1059E000FCF796F9D4F8A010B14217D04FF0000C94
:1059F0000B4609681A6C9F68C4F8A0104E60C3F883
:105A000050C083F84CC012689068B842FBD250680E
:105A1000B142C3E9002003605360E9D18448FCF738
:105A200087F9002383F311882C052FD57F4CD4F8F8
:105A3000B83013B1D4F8BC009847302383F31188F1
:105A40007B487D4EFCF764F9D4F8B010B14217D012
:105A50004FF0000C0B4609681A6C9F68C4F8B01030
:105A60004E60C3F850C083F84CC012689068B842CA
:105A7000FBD25068B142C3E9002003605360E9D112
:105A80006B48FCF755F9002383F31188E8042FD500
:105A9000664CD4F8C83013B1D4F8CC009847302302
:105AA00083F311886248654EFCF732F9D4F8C010D0
:105AB000B14217D04FF0000C0B4609681A6C9F6872
:105AC000C4F8C0104E60C3F850C083F84CC01268D0
:105AD0009068B842FBD25068B142C3E9002003602D
:105AE0005360E9D15248FCF723F9002383F311886E
:105AF000A9042FD54D4CD4F8D83013B1D4F8DC001C
