:020000040800F2
:1000000000040020D9020008DB020008DB0200081F
:10001000DB020008DB020008DB020008DB0200084C
:10002000DB020008DB020008DB020008E102000836
:10003000DB020008DB02000811030008DB020008F5
:10004000DB020008DB020008DB020008DB0200081C
:10005000DB020008DB020008D1670008D168000855
:10006000D1690008D16A0008D16B000891780008B6
:1000700021790008B1790008417A0008D17A000896
:10008000617B0008F17B0008DB020008DB0200084E
:1000900091810008DB020008DB020008D16C000837
:1000A000DB020008DB020008DB020008DB020008BC
:1000B000E1750008DB020008D1770008DB020008C8
:1000C000DB020008DB020008DB020008DB0200089C
:1000D000DB020008DB02000861720008DB02000896
:1000E000616F0008DB020008DB020008DB02000889
:1000F000DB020008DB020008DB020008DB0200086C
:10010000DB020008DB020008DB020008DB0200085B
:10011000DB020008DB020008DB020008DB0200084B
:10012000117D0008A17D0008317E0008C17E000815
:10013000517F0008DB020008DB020008DB02000838
:10014000DB020008DB020008DB020008DB0200081B
:10015000DB020008DB020008DB020008DB0200080B
:10016000DB020008DB020008DB020008DB020008FB
:10017000DB020008DB020008DB020008DB020008EB
:10018000DB020008DB020008DB020008DB020008DB
:10019000DB020008DB020008DB020008DB020008CB
:1001A000DB020008DB020008DB020008DB020008BB
:1001B000DB020008DB020008DB020008DB020008AB
:1001C000817C0008E17F000871800008018100083F
:1001D000DB020008DB020008DB020008DB0200088B
:1002000072B6264880F30888254880F30988254877
:1002100025490860022080F31488BFF36F8F06F031
:1002200017F908F085F94FF0553020491B4A9142E3
:100230003CBF41F8040BFAE71D49194A91423CBF03
:1002400041F8040BFAE71B491B4A1C4B9A423EBF7C
:1002500051F8040B42F8040BF8E700201849194A3A
:1002600091423CBF41F8040BFAE706F009F906F0A9
:10027000F7F8154C154DAC4203DA54F8041B8847C7
:10028000F9E708F0A5FB124C124DAC4203DA54F822
:10029000041B8847F9E706F0EBB8000000040020D3
:1002A000000800200000000808ED00E00000002029
:1002B00000040020A410010800080020B81100204C
:1002C000C011002054230120E0010008E0010008D3
:1002D000E0010008E001000892E700F000F8FEE706
:1002E000EFF309820C31EFF31183A1E8FC4F0C30DE
:1002F0004368002B05D1044606F0FAF806F010F921
:100300002046B0E8FC4F82F3098883F311887047D8
:10031000EFF3118308B508F063FA002808BF08BDA1
:10032000BDE808400C31EFF30982A1E8FC4F0C3026
:100330004368002B05D1044606F0DAF806F0F0F821
:100340002046B0E8FC4F82F3098883F31188704798
:1003500006F0CEF806F0E4F8002383F3118828466F
:10036000A047002008F01CFAFEE7000081F00041E1
:1003700002E000BF83F0004330B54FEA41044FEA8A
:10038000430594EA050F08BF90EA020F1FBF54EA25
:10039000000C55EA020C7FEA645C7FEA655C00F0C1
:1003A000E2804FEA5454D4EB5555B8BF6D420CDD92
:1003B0002C4480EA020281EA030382EA000083EA15
:1003C000010180EA020281EA0303362D88BF30BDB5
:1003D00011F0004F4FEA01314FF4801C4CEA11310B
:1003E00002D0404261EB410113F0004F4FEA03336A
:1003F0004CEA133302D0524263EB430394EA050FF5
:1004000000F0A780A4F10104D5F1200E0DDB02FA63
:100410000EFC22FA05F2801841F1000103FA0EF2F7
:10042000801843FA05F359410EE0A5F120050EF1BD
:10043000200E012A03FA0EFC28BF4CF0020C43FAEE
:1004400005F3C01851EBE37101F0004507D54FF0FB
:10045000000EDCF1000C7EEB00006EEB0101B1F54B
:10046000801F1BD3B1F5001F0CD349085FEA300091
:100470004FEA3C0C04F101044FEA445212F5800F9C
:1004800080F09A80BCF1004F08BF5FEA500C50F139
:10049000000041EB045141EA050130BD5FEA4C0C1C
:1004A000404141EB0101013C28BFB1F5801FE9D279
:1004B00091F0000F04BF01460020B1FA81F308BF9C
:1004C0002033A3F10B03B3F120020CDA0C3208DD68
:1004D00002F1140CC2F10C0201FA0CF021FA02F143
:1004E0000CE002F11402D8BFC2F1200C01FA02F1B3
:1004F00020FA0CFCDCBF41EA0C019040E41AA2BFD8
:1005000001EB0451294330BD6FEA04041F3C1CDA9F
:100510000C340EDC04F11404C4F1200220FA04F0BF
:1005200001FA02F340EA030021FA04F345EA030169
:1005300030BDC4F10C04C4F1200220FA02F001FA2B
:1005400004F340EA0300294630BD21FA04F02946AD
:1005500030BD94F0000F83F4801306BF81F4801146
:100560000134013D4EE77FEA645C18BF7FEA655CB9
:1005700029D094EA050F08BF90EA020F05D054EA8B
:10058000000C04BF1946104630BD91EA030F1EBF90
:100590000021002030BD5FEA545C05D14000494194
:1005A00028BF41F0004130BD14F580043CBF01F587
:1005B000801130BD01F0004545F0FE4141F470016D
:1005C0004FF0000030BD7FEA645C1ABF1946104648
:1005D0007FEA655C1CBF0B46024650EA013406BF49
:1005E00052EA033591EA030F41F4002130BD00BF08
:1005F00090F0000F04BF0021704730B54FF48064C5
:1006000004F132044FF000054FF0000150E700BF45
:1006100090F0000F04BF0021704730B54FF48064A4
:1006200004F1320410F0004548BF40424FF0000191
:100630003EE700BF42004FEAE2014FEA31014FEAD4
:1006400002701FBF12F07F4393F07F4F81F0605123
:10065000704732F07F4208BF704793F07F4F04BF6E
:1006600041F40021704730B54FF4607401F000454B
:1006700021F000411CE700BF50EA010208BF7047AB
:1006800030B54FF000050AE050EA010208BF70479C
:1006900030B511F0004502D5404261EB41014FF405
:1006A000806404F132045FEA915C3FF4D8AE4FF00D
:1006B00003025FEADC0C18BF03325FEADC0C18BFF0
:1006C000033202EBDC02C2F1200300FA03FC20FA41
:1006D00002F001FA03FE40EA0E0021FA02F114448E
:1006E000BDE600BF70B54FF0FF0C4CF4E06C1CEAA7
:1006F00011541DBF1CEA135594EA0C0F95EA0C0F18
:1007000000F0DEF82C4481EA030621EA4C5123EA8A
:100710004C5350EA013518BF52EA033541F48011B9
:1007200043F4801338D0A0FB02CE4FF00005E1FB6C
:1007300002E506F00042E0FB03E54FF00006E1FBB6
:1007400003569CF0000F18BF4EF0010EA4F1FF04F9
:10075000B6F5007F64F5407404D25FEA4E0E6D4139
:1007600046EB060642EAC62141EA55514FEAC5204A
:1007700040EA5E504FEACE2EB4F1FD0C88BFBCF5C6
:10078000E06F1ED8BEF1004F08BF5FEA500E50F177
:10079000000041EB045170BD06F0004646EA01013D
:1007A00040EA020081EA0301B4EB5C04C2BFD4EB6F
:1007B0000C0541EA045170BD41F480114FF0000E68
:1007C000013C00F3AB8014F1360FDEBF002001F0D6
:1007D000004170BDC4F10004203C35DA0C341BDC50
:1007E00004F11404C4F1200500FA05F320FA04F022
:1007F00001FA05F240EA020001F0004221F0004156
:1008000010EBD37021FA04F642EB06015EEA430EC8
:1008100008BF20EAD37070BDC4F10C04C4F12005F8
:1008200000FA04F320FA05F001FA04F240EA0200AB
:1008300001F0004110EBD37041F100015EEA430E7C
:1008400008BF20EAD37070BDC4F1200500FA05F29C
:100850004EEA020E20FA04F301FA05F243EA02031B
:1008600021FA04F001F0004121FA04F220EA02002A
:1008700000EBD3705EEA430E08BF20EAD37070BD70
:1008800094F0000F0FD101F00046400041EB010150
:1008900011F4801F08BF013CF7D041EA060195F032
:1008A000000F18BF704703F00046520043EB0303EC
:1008B00013F4801F08BF013DF7D043EA06037047D9
:1008C00094EA0C0F0CEA135518BF95EA0C0F0CD0E4
:1008D00050EA410618BF52EA4306D1D181EA03012A
:1008E00001F000414FF0000070BD50EA410606BF24
:1008F0001046194652EA430619D094EA0C0F02D169
:1009000050EA013613D195EA0C0F05D152EA0336AD
:100910001CBF104619460AD181EA030101F00041CB
:1009200041F0FE4141F470014FF0000070BD41F014
:10093000FE4141F4780170BD70B54FF0FF0C4CF4EE
:10094000E06C1CEA11541DBF1CEA135594EA0C0F0D
:1009500095EA0C0F00F0A7F8A4EB050481EA030E5A
:1009600052EA03354FEA013100F088804FEA033341
:100970004FF0805545EA131343EA12634FEA02220F
:1009800045EA111545EA10654FEA00260EF00041D0
:100990009D4208BF964244F1FD0404F5407402D222
:1009A0005B084FEA3202B61A65EB03055B084FEAB3
:1009B00032024FF480104FF4002CB6EB020E75EBB0
:1009C000030E22BFB61A754640EA0C005B084FEAD8
:1009D0003202B6EB020E75EB030E22BFB61A754655
:1009E00040EA5C005B084FEA3202B6EB020E75EBA0
:1009F000030E22BFB61A754640EA9C005B084FEA18
:100A00003202B6EB020E75EB030E22BFB61A754624
:100A100040EADC0055EA060E18D04FEA051545EA13
:100A200016754FEA06164FEAC30343EA52734FEABC
:100A3000C2025FEA1C1CC0D111F4801F0BD141EA35
:100A400000014FF000004FF0004CB6E711F4801F9A
:100A500004BF01430020B4F1FD0C88BFBCF5E06F7A
:100A60003FF6AFAEB5EB030C04BFB6EB020C5FEA8A
:100A7000500C50F1000041EB045170BD0EF0004EDF
:100A80004EEA113114EB5C04C2BFD4EB0C0541EA11
:100A9000045170BD41F480114FF0000E013C90E60E
:100AA00045EA060E8DE60CEA135594EA0C0F08BFD2
:100AB00095EA0C0F3FF43BAF94EA0C0F0AD150EAD1
:100AC00001347FF434AF95EA0C0F7FF425AF104664
:100AD00019462CE795EA0C0F06D152EA03353FF48C
:100AE000FDAE1046194622E750EA410618BF52EA09
:100AF00043067FF4C5AE50EA41047FF40DAF52EADD
:100B000043057FF4EBAE12E74FF0FF3C06E000BF79
:100B10004FF0010C02E000BF4FF0010C4DF804CD86
:100B20004FEA410C7FEA6C5C4FEA430C18BF7FEA46
:100B30006C5C1BD001B050EA410C0CBF52EA430C74
:100B400091EA030F02BF90EA020F0020704710F1F4
:100B5000000F91EA030F58BF994208BF90422CBF83
:100B6000D8176FEAE37040F0010070474FEA410C7C
:100B70007FEA6C5C02D150EA013C07D14FEA430C9A
:100B80007FEA6C5CD6D152EA033CD3D05DF8040B0B
:100B9000704700BF8446104662468C46194663463D
:100BA00000E000BF01B5FFF7B7FF002848BF10F114
:100BB000000F01BD4DF808EDFFF7F4FF0CBF012059
:100BC00000205DF808FB00BF4DF808EDFFF7EAFFD5
:100BD00034BF012000205DF808FB00BF4DF808ED90
:100BE000FFF7E0FF94BF012000205DF808FB00BF85
:100BF0004DF808EDFFF7CEFF94BF012000205DF80F
:100C000008FB00BF4DF808EDFFF7C4FF34BF01201B
:100C100000205DF808FB00BF4FEA410C7FEA6C5CE6
:100C200002D150EA013C0AD14FEA430C7FEA6C5CE6
:100C300002D152EA033C02D14FF0000070474FF05E
:100C4000010070474FF0FF0C1CEAD0521EBF1CEA97
:100C5000D15392EA0C0F93EA0C0F6FD01A4480EA3A
:100C6000010C400218BF5FEA41211ED04FF0006323
:100C700043EA501043EA5111A0FB01310CF000404F
:100C8000B1F5000F3EBF490041EAD3715B0040EA75
:100C9000010062F17F02FD2A1DD8B3F1004F40EB45
:100CA000C25008BF20F00100704790F0000F0CF018
:100CB000004C08BF49024CEA502040EA51207F3ADC
:100CC000C2BFD2F1FF0340EAC250704740F40000B7
:100CD0004FF00003013A5DDC12F1190FDCBF00F0A8
:100CE00000407047C2F10002410021FA02F1C2F156
:100CF000200200FA02FC5FEA310040F1000053EAF2
:100D00004C0308BF20EADC70704792F0000F00F03F
:100D1000004C02BF400010F4000F013AF9D040EA45
:100D20000C0093F0000F01F0004C02BF490011F4D9
:100D3000000F013BF9D041EA0C018FE70CEAD153D7
:100D400092EA0C0F18BF93EA0C0F0AD030F0004C57
:100D500018BF31F0004CD8D180EA010000F000400B
:100D6000704790F0000F17BF90F0004F084691F0C9
:100D7000000F91F0004F14D092EA0C0F01D1420203
:100D80000FD193EA0C0F03D14B0218BF084608D1CC
:100D900080EA010000F0004040F0FE4040F4000016
:100DA000704740F0FE4040F4400070474FEA410277
:100DB00012F5001215D211D56FF47873B3EB6252AD
:100DC00012D94FEAC12343F0004343EA505311F0D4
:100DD000004F23FA02F018BF404270474FF0000066
:100DE000704750EA013005D111F0004008BF6FF0A4
:100DF000004070474FF00000704700BF4FEA4002CC
:100E0000B2F1FE4F0FD34FF09E03B3EB12620DD938
:100E10004FEA002343F0004310F0004F23FA02F0A2
:100E200018BF404270474FF00000704712F1610F49
:100E300001D1420205D110F0004008BF6FF0004020
:100E400070474FF00000704742000ED2B2F1FE4FE3
:100E50000BD34FF09E03B3EB126209D44FEA002389
:100E600043F0004323FA02F070474FF00000704750
:100E700012F1610F01D1420202D14FF0FF307047F1
:100E80004FF00000704700BF844641EA000313F0B2
:100E900003036DD1403A41D351F8043B40F8043B81
:100EA00051F8043B40F8043B51F8043B40F8043B44
:100EB00051F8043B40F8043B51F8043B40F8043B34
:100EC00051F8043B40F8043B51F8043B40F8043B24
:100ED00051F8043B40F8043B51F8043B40F8043B14
:100EE00051F8043B40F8043B51F8043B40F8043B04
:100EF00051F8043B40F8043B51F8043B40F8043BF4
:100F000051F8043B40F8043B51F8043B40F8043BE3
:100F100051F8043B40F8043B403ABDD2303211D383
:100F200051F8043B40F8043B51F8043B40F8043BC3
:100F300051F8043B40F8043B51F8043B40F8043BB3
:100F4000103AEDD20C3205D351F8043B40F8043B83
:100F5000043AF9D2043208D0D2071CBF11F8013B81
:100F600000F8013B01D30B8803806046704700BF47
:100F7000082A13D38B078DD010F003038AD0C3F156
:100F80000403D21ADB071CBF11F8013B00F8013B38
:100F900080D331F8023B20F8023B7BE7043AD9D3F7
:100FA000013A11F8013B00F8013BF9D20B780370CC
:100FB0004B7843708B788370604670470000000068
:100FC000A2EB0300704700BF02780B78012A28BF0C
:100FD0009A42F5D16DE9044540EA0104CDE9026782
:100FE0006FF0000C4FEA447212B380EA010414F06F
:100FF000070F6AD100F0070420F0070004F0030592
:1010000021F007014FEAC505F0E8042314F0040FAE
:10101000F1E804670CFA05F462EA040266EA0406E1
:101020000AD063EA0403624667EA0407664603E0FF
:10103000F0E80423F1E8046782FA4CF582EA06043A
:10104000A4FA8CF46CBB83FA4CF583EA0705A5FA85
:101050008CF595B950E9022351E9026782FA4CF503
:1010600082EA0604A4FA8CF483FA4CF583EA0705B5
:10107000A5FA8CF52543DBD09CB92DBAB5FA85F4D9
:1010800024F0070427FA04F1DDE9026723FA04F3E8
:1010900003F0FF0001F0FF01FDE80445A0EB0100B3
:1010A000704724BAB4FA84F424F0070426FA04F151
:1010B000DDE9026722FA04F202F0FF0001F0FF010D
:1010C000FDE80445A0EB0100704714F0030F3CD18C
:1010D00010F0030428D150F8082B51F8083B82FA8D
:1010E0004CF582EA0305A5FA8CF55DB950F8042C9D
:1010F00051F8043C82FA4CF582EA0305A5FA8CF516
:10110000002DE8D02DBAB5FA85F424F0070423FAAF
:1011100004F122FA04F202F0FF0001F0FF01FDE801
:101120000445A0EB010070474FEAC40420F003001F
:1011300050F8082B21F0030151F8083B0CFA04F495
:1011400062EA040263EA0403C9E710F003041AD058
:10115000A1EB040120F00300E40750F8042B06D0B3
:101160000FD28B785FFAA2F4E41A06D12BB1CB78B8
:101170005FFAB2F4E41A00D11BB920465DF8104BB7
:10118000704701F1040150F8042BCC0721F0030152
:1011900051F8043B48D824D222F07F4482FA4CF51F
:1011A00094EA1325A5FA8CF50AD165B951F8043BE8
:1011B00084EA0204B4EB036F0ED150F8042BEBE782
:1011C0004FEA132355E035F07F454DD10878FDE80F
:1011D0000445C0F1000070474FEA126203F0FF03BC
:1011E00047E002EA1C4482FA4CF594EA1345A5FA5A
:1011F0008CF50AD165B951F8043B84EA0204B4EBDA
:10120000034F0CD150F8042BEBE74FEA134330E0C7
:1012100015EA1C4528D10B884FEA124229E04FEA13
:10122000124203EA1C4324E002F0FF0482FA4CF568
:1012300094EA1365A5FA8CF50AD165B951F8043B17
:1012400084EA0204B4EB032F09D150F8042BEBE736
:101250004FEA13630DE015F0FF0F05D10B684FEA5D
:10126000122223F07F4304E04FF00000FDE8044524
:10127000704712BA1BBA82FA4CF482EA0304A4FA49
:101280008CF5B5FA85F402FA04F203FA04F34FEA96
:101290001260FDE80445A0EB1360704700000000F9
:1012A000000000000000000000000000000000003E
:1012B000000000000000000000000000000000002E
:1012C00090F800F06DE9024520F007016FF0000C86
:1012D00010F0070491F820F040F049804FF000042E
:1012E0006FF00700D1E9002391F840F000F1080009
:1012F00082FA4CF2A4FA8CF283FA4CF3A2FA8CF341
:101300004BBBD1E9022382FA4CF200F10800A4FAA7
:101310008CF283FA4CF3A2FA8CF3E3B9D1E90423FB
:1013200082FA4CF200F10800A4FA8CF283FA4CF332
:10133000A2FA8CF37BB9D1E9062301F1200182FAEC
:101340004CF200F10800A4FA8CF283FA4CF3A2FAF2
:101350008CF3002BC6D0002A04BF04301A4612BA00
:10136000B2FA82F2FDE8024500EBD2007047D1E903
:10137000002304F00305C4F100004FEAC50514F092
:10138000040F91F840F00CFA05F562EA05021CBF63
:1013900063EA050362464FF00004A9E7000000007D
:1013A00001F0FF01102A2BDB10F0070F08D010F816
:1013B000013B013A8B422DD010F0070F42B3F6D11A
:1013C000F0B441EA012141EA014122F007047FF033
:1013D00000070023F0E80256083C85EA010586EA8A
:1013E000010685FA47F5A3FA87F586FA47F6A5FAC6
:1013F00087F68EB9EED1F0BC01F0FF0102F00702D2
:1014000032B110F8013B013A83EA010313B1F8D17C
:101410000020704701387047002D06BF354603385D
:10142000073815F0010F07D1013015F4807F02BF96
:10143000013015F4C03F0130F0BC0138704700BFE7
:101440004A0011D212F5001211D20DD56FF4787343
:10145000B3EB62520ED44FEAC12343F0004343EA98
:10146000505323FA02F070474FF00000704750EAE3
:10147000013002D14FF0FF3070474FF0000070474D
:101480004FEA4102B2F1E04324BFB3F5001CDCF1A6
:10149000FE5C0DD901F0004C4FEAC0024CEA5070DE
:1014A000B2F1004F40EB830008BF20F0010070470D
:1014B00011F0804F21D113F13872BCBF01F0004010
:1014C000704741F480114FEA5252C2F11802C2F142
:1014D000200C10FA0CF320FA02F018BF40F00100C3
:1014E0004FEAC1234FEAD32303FA0CFC40EA0C0075
:1014F00023FA02F34FEA4303CCE77FEA625307D1B2
:1015000050EA01331EBF4FF0FE4040F440007047E8
:1015100001F0004040F0FE4040F40000704700BF82
:101520004FF0FF3C06E000BF4FF0010C02E000BFAF
:101530004FF0010C4DF804CD4FEA40024FEA410351
:101540007FEA226C18BF7FEA236C11D001B052EA07
:10155000530C18BF90EA010F58BFB2EB030088BFCD
:10156000C81738BF6FEAE17018BF40F0010070473C
:101570007FEA226C02D15FEA402C05D17FEA236C1E
:10158000E4D15FEA412CE1D05DF8040B704700BF65
:10159000844608466146FFE70FB5FFF7C9FF0028FC
:1015A00048BF10F1000F0FBD4DF808EDFFF7F4FF35
:1015B0000CBF012000205DF808FB00BF4DF808EDCE
:1015C000FFF7EAFF34BF012000205DF808FB00BFF1
:1015D0004DF808EDFFF7E0FF94BF012000205DF813
:1015E00008FB00BF4DF808EDFFF7D2FF94BF0120C4
:1015F00000205DF808FB00BF4DF808EDFFF7C8FFBD
:1016000034BF012000205DF808FB00BF4FEA400214
:101610004FEA41037FEA226C02D15FEA402C08D1F5
:101620007FEA236C02D15FEA412C02D14FF0000027
:1016300070474FF00100704753B94AB9002908BFFD
:1016400000281CBF4FF0FF314FF0FF3000F0ACB965
:10165000ADF1080C6DE904CE00F03EF8DDF804E0D1
:10166000DDE9022304B0704738B505460C4628462C
:10167000214600220023FFF7A7FA28B92846214671
:10168000BDE8384000F00AB8284604F1004100F0F7
:1016900005F8404261EB410138BD00BFD0B50C4BAD
:1016A000002206460F46FFF71DF8FFF7C9FE044665
:1016B000FEF79EFF074B0022FFF714F802460B4689
:1016C00030463946FEF756FEFFF7BAFE2146D0BD3A
:1016D0000000F03D0000F0412DE9F047089E0D4666
:1016E00004468846002B4DD18A42944668D9B2FA06
:1016F00082F252B101FA02F3C2F1200120FA01F1A3
:101700000CFA02FC41EA030894404FEA1C45210C04
:10171000B8FBF5FE1FFA8CF705FB1E8341EA034375
:101720000EFB07F199420BD91CEB03030EF1FF30BE
:1017300080F01E81994240F21B81AEF1020E63449B
:101740005B1AA4B2B3FBF5F005FB103344EA034483
:1017500000FB07F7A7420AD91CEB040400F1FF3392
:1017600080F00881A74240F2058164440238E41BFE
:1017700040EA0E4000211EB1D4400023C6E90043D8
:10178000BDE8F0878B4208D9002E00F0EE800021E2
:10179000C6E900050846BDE8F087B3FA83F10029E1
:1017A0004AD1AB4202D3824200F2F980841A65EB3F
:1017B000030301209846002EE2D0C6E90048DFE787
:1017C00002B9FFDEB2FA82F2002A40F09180A1EB6A
:1017D0000C054FEA1C471FFA8CFE0121B5FBF7F3FD
:1017E00007FB1350250C45EA00450EFB03F0A84209
:1017F00008D91CEB050503F1FF3802D2A84200F21C
:10180000CB8043462D1AA4B2B5FBF7F007FB105569
:1018100044EA05440EFB00FEA64508D91CEB04046F
:1018200000F1FF3502D2A64500F2BB802846A4EBAA
:101830000E0440EA03409EE7C1F120078B4022FAE4
:1018400007FC4CEA030C20FA07F405FA01F31C43E9
:10185000FD404FEA1C4900FA01F3B5FBF9F8200CF2
:101860001FFA8CFE09FB185540EA054508FB0EF0EF
:10187000A84202FA01F20BD91CEB050508F1FF3A68
:1018800080F08880A84240F28580A8F10208654473
:101890002D1AA4B2B5FBF9F009FB105544EA054531
:1018A00000FB0EFEAE4508D91CEB050500F1FF3428
:1018B0006CD2AE456AD90238654440EA0840A0FBC4
:1018C0000294A5EB0E05A542C846A64656D353D0B2
:1018D0005EB1B3EB080265EB0E0505FA07F722FAD5
:1018E00001F3CD401F43C6E900750021BDE8F08734
:1018F000C2F1200320FA03F10CFA02FC25FA03F3EB
:1019000095400D434FEA1C471FFA8CFEB3FBF7F1DD
:1019100007FB11302B0C43EA004301FB0EF0984209
:1019200004FA02F408D91CEB030301F1FF382FD2AB
:1019300098422DD9023963441B1AADB2B3FBF7F0BC
:1019400007FB103345EA034500FB0EF3AB4208D911
:101950001CEB050500F1FF3816D2AB4214D9023852
:101960006544ED1A40EA014138E73146304607E761
:101970008646E5E61846FAE64B45A9D2B9EB0208D9
:1019800064EB0C0E0138A3E74046EAE7204694E7F3
:101990004146D1E7D0467BE7023B654432E7084643
:1019A00009E76444023842E7704700BF00000000C6
:1019B00090F8743003F06003202B01D000207047B2
:1019C00090F87530212B09D81F2BF7D9074907222A
:1019D0000023C0E91A12036701207047222BEDD1C2
:1019E0000023C0E91A330367012070470008002074
:1019F000704700BF00000000000000000000000071
:101A000090F87630074A80F87E3043F0800310B5B6
:101A1000D36443681B6804460BB101219847032334
:101A2000237010BD005C00400000000000000000BA
:101A300010B40268037C11684468D940246801F03E
:101A40000E010C420DD0407C074C013001FA03F32B
:101A5000536054F8303023B104EBC00010BC406830
:101A6000184710BC704700BF101C01200000000088
:101A70002DE9F04F02F00308C2F34115D609C6461E
:101A800000224FF00F0B4FF0010A4FF0030912E054
:101A90000468234043EA0E03072A03603DD8036A23
:101AA00023EA0C0C4CEA07070762490833D0AD0063
:101AB0004FEA8E0E0132CB07F7D543680AFA02F4DB
:101AC00023EA040343608468530009FA03F324EA19
:101AD00003048460C46802F0070C24EA03044FEA9C
:101AE0008C0C2C43B8F1020F06FA0CF7C4600BFA09
:101AF0000CFC6FEA0303CBD1072A15D8046A24EA49
:101B00000C0C4CEA070707620468234043EA0E0303
:101B100049080360CBD1BDE8F08F436A23EA0C0C7F
:101B20004CEA07074762C0E7446A24EA0C0C4CEA17
:101B300007074762E8E700BF000000000000000060
:101B4000836A9962DA6912F0800FC26806D0D20601
:101B500003D51A6842F040021A6070471107F6D5A3
:101B6000996841F400019960F1E700BF00000000AE
:101B700072B60349034BC1F8C80003221A70FEE78E
:101B8000E0190120E01B012000000000000000001F
:101B900030BFFDE700000000000000000000000072
:101BA000014B5B6883607047001000E0000000009C
:101BB0000148FFF7F5BF00BFC01A01200000000078
:101BC0000E4A0F4B81685B6810B4946802691B1B56
:101BD0005B1AD218416902614268C46841F1000190
:101BE0009342026888BF436001349342C0E90234E3
:101BF000416110BC38BF0360704700BFE01B01208B
:101C0000001000E0000000000000000000000000E4
:101C10000D4B5B6810B48B60D0E9034281685B1A9E
:101C2000D21841690261426841F1000193420268A1
:101C300088BF436001349342C0E90234416110BC63
:101C400038BF0360704700BF001000E000000000D4
:101C5000022906D0032906D00129074818BF002011
:101C6000704706487047032A03D8054800EBC200B6
:101C700070470020704700BF740A0108280A010855
:101C8000FC0A010800000000000000000000000045
:101C9000124BD3F8CC2010B5D2B9D3F8D030002BEA
:101CA00016DDC368BBB1D0E90531D0F81CC0C268ED
:101CB00063448B42436124BF436A4361013A036B2F
:101CC000C2600022826213B1BDE81040184710BD07
:101CD0000348FFF74DFF0348FFF74AFFE0190120D3
:101CE00040F80008CC0501080000000000000000DA
:101CF00008B5064BD3E933120A4303D10122C3F8D6
:101D0000D02008BD0248FFF733FF00BFE0190120D3
:101D100048F800080000000000000000000000007B
:101D2000154BD3F8CC2010B512BBD3F8D030002B14
:101D30001EDDC9B1C369043B8B4215D3C3689BB197
:101D4000036984691960C169C2680B44A3420361D5
:101D500024BF436A0361013A036BC26000228262BE
:101D60002BB1BDE8104018470448FFF701FF10BD34
:101D70000348FFF7FDFE00BFE0190120C40201087F
:101D800040F8000800000000000000000000000013
:101D900008B530B129B1012901D0002008BD002AC1
:101DA000FBD00148FFF7E4FE080501080000000031
:101DB00008B5064BD3F8CC20002A04DBD3F8D0308A
:101DC000002B00DD08BD0248FFF7D2FEE01901201C
:101DD00050F80008000000000000000000000000B3
:101DE00030B149B1012901D000207047002AFBD051
:101DF00008B50348FFF7BCFE6FF01300704700BF43
:101E0000E8030108000000000000000000000000DE
:101E100010B5104CD4F8CC3083B9D4F8D020002AB7
:101E20000CDD04F1E000C4F8D030FFF7C9FE2368F0
:101E3000A34206D1002383F3118810BD0648FFF7A3
:101E400097FEE2689B6892689A42F3D20348FFF7D4
:101E50008FFE00BFE019012058F800089803010820
:101E600038B528B30246302383F31188174C04F1A8
:101E7000E000FFF795FED4E9333119431BD101236C
:101E8000C4F8D03092F800C0BCF1020F10D15268F3
:101E90001569D268AB409BB25383C4F8D010FFF7EA
:101EA0008FFE2368A34209D1002383F3118838BD34
:101EB0000748FFF75DFE0748FFF75AFEE2689B6898
:101EC00092689A42F0D20448FFF752FEE0190120CE
:101ED0007C06010848F8000898030108000000008B
:101EE00038B528B30246302383F31188174C04F128
:101EF000E000FFF755FED4E9333119431BD101232C
:101F0000C4F8D03092F800C0BCF1020F10D1526872
:101F10001569D268AB409BB21383C4F8D010FFF7A9
:101F20004FFE2368A34209D1002383F3118838BDF3
:101F30000748FFF71DFE0748FFF71AFEE2689B6897
:101F400092689A42F0D20448FFF712FEE01901208D
:101F50005006010848F80008980301080000000036
:101F600070B5204CD4F8CC50002D37DBD4F8D040DD
:101F7000002C33DD78B307292DD8B0F80AE001250D
:101F800005FA01FC1CEA0E041FFA8CF623D14EEA76
:101F9000060EA0F80AE000EB8100C668B069C0E94F
:101FA0000142036083B9104A858152F8213023F43D
:101FB000904323F0700383F4405343F4004343F011
:101FC000800342F8213070BD728A013B1344B3FB99
:101FD000F2F39DB2E7E70548FFF7CAFD0448FFF7B3
:101FE000C7FD00BFE0190120005C00409C0501080E
:101FF00050F8000800000000000000000000000091
:1020000070B52E4CD4F8CC50002D54DBD4F8D04011
:10201000002C50DD00284BD0072949D8B0F808C063
:1020200001248C40A5B214EA0C0441D14CEA050C01
:10203000A0F808C000EB8100214EC568288A6D69B0
:10204000984228BF1846C5E902206C602B60336DAA
:1020500003F1804303F5C04303EBC10384B2B3F83B
:1020600000E05C801FFA8EFE90B100F1FF3C2CF086
:10207000010C0CF1020CC2F180441346944404F5A7
:10208000C0441A4633F8020B724463451053F8D12A
:102090000B4A52F8213023F4F04323F0400383F03D
:1020A000300343F4004343F0800342F8213070BD15
:1020B0000448FFF75DFD0448FFF75AFDE0190120D1
:1020C000005C00403405010850F8000800000000E2
:1020D000436BD3F88C2410680178042902D1197A53
:1020E000022900D070471179B0F808C001228A4057
:1020F00012EA0C0FF6D10E4A10B5D2F8CC40002CE3
:1021000013DBD2F8D020002A0FDDD3E91542944228
:1021100005D0BDE8104052F8043BFFF771BF1B6DBE
:10212000002BF6D00348FFF723FD0348FFF720FDFF
:10213000E01901207005010850F8000800000000B7
:10214000F8B590F86430044613B1002380F8643089
:10215000B04BB1481A6D02F1804202F5C04202EB69
:10216000C10204F17403918804F17C05001B89B25B
:102170005A18125A23F8022B9D42F9D163689B68C2
:10218000002B43D02046984700283FD0E36E94F8B8
:102190007410B4F87A209A423CBFE26613460A06ED
:1021A00000F1E680002B00F00981152384F86430EB
:1021B000302383F31188994D05F1F800FFF7F0FC07
:1021C000D5F8CC30002B40F35281D5F8D060002EEA
:1021D00040F04D810121D4E91A232046C5F8D010E2
:1021E0003146FFF7BDFED5F8CC30002B40F3E3803D
:1021F000D5F8D030002B40F3DE8005F1F800C5F8AB
:10220000D060FFF7DDFC86F31188F8BD94F87410F8
:1022100011F060061CD194F8752001F07F0343EAA9
:10222000022340F20232934200F0BB814DD8B3F555
:10223000807F00F078812AD9B3F5817F00F0838117
:10224000B3F5407F04D194F87630012B00F01B8168
:10225000704965680A6822F4F04222F0400248F2B0
:10226000800082F0100202430A600B682A6823F49F
:10227000904323F0700383F4805303430B6012B147
:10228000062120469047062384F86430F8BD012BD0
:102290004AD0022B3CD194F9780094F87820002899
:1022A00002F00F025B4850F82220C0F2E38012F4E3
:1022B0004052CDD0B2F5805F00F0E3805848022252
:1022C000C4E91A020022226763E7B3F5006F00F049
:1022D000858130D9B3F5106F22D12378042B00F01B
:1022E000DD804E4F94F876304BB1626884F87F30D1
:1022F00004212170136813B102212046984700235E
:10230000C4E91A3394F8741023670B0657D590E08C
:10231000002B9DD102222367C4E91A52134638E7E5
:1023200040F60242934293D13E4802230022C4E980
:102330001A0322672DE7B3F5A06F00F02C81A3F5F7
:10234000C063012B84D86268B4F87830556894F87B
:10235000771094F876202046A84700283FF478AFFD
:10236000D0E9003294F874102667C4E91A2310E704
:10237000002B5DD0092384F86430302383F3118867
:10238000264D05F1F800FFF70BFCD5F8CC30002BFB
:102390006DDDD5F8D060002E69D10121D4E91A2372
:1023A0002046C5F8D0103146FFF72AFED5F8CC30CC
:1023B000002B3FF71DAF1C48FFF7DAFB174F0B232D
:1023C00084F86430302383F311881848FFF7E8FB62
:1023D000D7F8CC30002B4ADDD7F8D050002D46D1AD
:1023E00001222B46C7F8D02020462A462946FFF76F
:1023F00007FED7F8CC30002BDDDDD7F8D030002B2E
:10240000D9DD0A48C7F8D050FFF7DAFB85F3118809
:10241000F8BD00BF005C00408C5F0040E019012067
:10242000E40701086C0B010868F80008D81A0120BD
:102430007E4F142384F86430302383F311887C4862
:10244000FFF7AEFBD7F8CC30002B10DDD7F8D0501B
:102450006DB901222B46C7F8D02020462A462946CE
:10246000FFF77EFDD7F8CC30002BC6DCA3E7714820
:10247000FFF77EFB12F030023FF4EAAE102A7FF441
:102480001DAF6D481BE7B4F87C30684F266743F0FA
:102490000203C4E91A66A4F87C3036E7302383F3DC
:1024A0001188624F07F1F800FFF77AFBD7F8CC30BC
:1024B000002BDCDDD7F8D030002BD8D10123C7F8B2
:1024C000D0302378042B40F0AE800025A368A562AD
:1024D000C4E90455C4E90655C4E90855402203F08F
:1024E0000113C4F88420A3600122930003F1804308
:1024F00003F5B843013219681960082A1D60F4D148
:102500004B48C7F8D050FFF75BFB85F311880321D8
:10251000636884F87F5021701B68002B3FF4E2AEA3
:1025200020469847DEE694F87630012B7FF490AE93
:10253000B4F87C303D4F266723F00203C4E91A66E5
:10254000A4F87C30E1E694F87630002B7FF480AE7E
:1025500094F8782012F00F0317D09B0003F180430A
:1025600003F5B84312F0800F1A684BD102F44052C1
:10257000B2F5405F09D01A6822F4F04222F040021E
:1025800042F4204242F080021A600023C4E91A3368
:10259000264F2367B9E6294B244F2367C4E91A66FF
:1025A000B3E694F87630002B7FF452AE94F878308E
:1025B00013F00F02E9D0224813F0800F50F82230B8
:1025C00013D123F4904323F0700383F4805343F436
:1025D000004343F0800340F82230D6E7012304F1A2
:1025E0007F02C4E91A232667D3E523F4F04323F0DE
:1025F000400383F0100343F4004343F0800340F8AA
:102600002230C2E702F03002302ABED01A6822F42B
:10261000F04222F0400282F0200242F4004242F0F6
:1026200080021A60B1E70748FFF7A2FAE01901201B
:10263000D81A012060F80008E8080108011A00080B
:10264000005C0040E40501080000000000000000FC
:1026500070B590F86430063B0446052B04D8DFE8DB
:1026600003F04703030613404A48FFF781FAC36E9D
:10267000B0F87A20934207D2C268128AB3FBF2F113
:1026800002FB1133002B58D0142384F8643030231C
:1026900083F31188404D05F1F800FFF781FAD5F872
:1026A000CC30002B43DDD5F8D060002E3FD1012285
:1026B0003346C5F8D020204632463146FFF750FC5D
:1026C000D5F8CC30002B35DDD5F8D030002B31DDFE
:1026D00005F1F800C5F8D060FFF772FA86F31188AB
:1026E00070BD036F03B19847002384F8643070BD58
:1026F0002A4965680A6822F4F04222F0400248F252
:10270000800082F0100202430A600B682A6823F4FA
:10271000904323F0700383F4805303430B6012B1A2
:10272000062120469047062384F8643070BD1C487B
:10273000FFF71EFA1B48FFF71BFA302383F31188BB
:10274000154D05F1F800FFF72BFAD5F8CC30002B2A
:10275000EDDDD5F8D060002EE9D101223346C5F871
:10276000D020314632462046FFF74AFCD5F8CC301F
:10277000002BDFDDD5F8D030002BDBDD05F1F800D4
:10278000C5F8D060FFF71CFA86F311880A2384F895
:10279000643070BD30030108E0190120005C004086
:1027A00060F8000868F80008000000000000000061
:1027B00070B590F864101429044606D015292CD061
:1027C00006290DD02E48FFF7D3F9C3689B695B68D3
:1027D0002BB9036F03B19847002384F8643070BDB0
:1027E000284D2B6823F4F04323F0400383F01002BC
:1027F00048F2800632432A602B6823F4904323F08A
:10280000700383F4805333432B6043681B6803B128
:102810009847062384F8643070BD0B2380F8643039
:10282000302383F31188184D05F1F800FFF7B8F94C
:10283000D5F8CC30002B1CDDD5F8D060CEB9012204
:102840003346C5F8D020204632463146FFF7D8FB44
:10285000D5F8CC30002B0FDDD5F8D030002B0BDDB8
:1028600005F1F800C5F8D060FFF7AAF986F31188E2
:1028700070BD0648FFF77CF90548FFF779F900BFFE
:1028800044020108005C0040E019012060F80008E3
:1028900068F80008000000000000000000000000D0
:1028A00038B500EB8103DC68236803F00303022BD7
:1028B00051D0032B4CD0012B50D04FF4007C2E4B29
:1028C0001B6D03F1804303F5C04303EBC102636951
:1028D0009BB1238AD0F88450013323F001032B44A9
:1028E0004FF0000EB3F5806FA2F802E0C0F884301C
:1028F0003ED8ADB215804CF0200CA369EBB1638AD1
:102900003E2B03F1FF342CD944F01F0401344FEA6D
:10291000541E1A4C44EA8E24A4B2D4800133D0F859
:10292000844023F001032344B3F5806FC0F8843062
:102930001ED8A4B294804CF4005C8B0003F1804359
:1029400003F5B8434CEA01011A681A60196038BDF2
:102950004FF4C06CB3E74FF0000CB0E70848FFF746
:1029600007F944F001040134640204F47C44D4E720
:102970000448FFF7FDF800BF005C00400080FFFF47
:102980004C0301086802010800000000000000007C
:102990004FF080430229DA6838BF0221920710B550
:1029A00000EB01041BD55C635A6A101A814298BF80
:1029B000022101D910BD0246D8680131800701EB20
:1029C00002040CD55C63586A821A8A42F3D2022947
:1029D000F0D9044A536B43F00103536310BD02481E
:1029E000FFF7C6F8E0190120B80201080000000056
:1029F00010B5302383F311882B4A02F1F800FFF75A
:102A0000CFF8D2F8CC30002B48DDD2F8D030002BF4
:102A100044D10123C2F8D03091F84C300C2B10D89F
:102A2000DFE803F0330F0F2C0B070F0B0F0F0F0F07
:102A30000B000C6DA0680130A060D1E9000420609B
:102A400044604FF0FF3008655BB30F2B29D00020A6
:102A50000B6C8C6881F84C001B689868A042FBD214
:102A600058680024C1E90030016059600F48C2F87D
:102A7000D040FFF7A5F884F3118810BD086D00243D
:102A80004FF0FF3304600B65E1E708480024C2F80B
:102A9000D040FFF795F884F3118810BD0448FFF784
:102AA00067F80448FFF764F8E0190120D81A0120FC
:102AB00060F80008B00401080000000000000000F9
:102AC00038B5194BD3F8CC202ABBD3F8D020002A34
:102AD00021DD5A689168012923D1DC6894421DD018
:102AE000226C9A421AD1156884F84C002B68136046
:102AF0005A6085F84C10D2F8DC30D56005F17001D1
:102B0000013304F17000C2F8DC30FFF781F8284689
:102B1000214600DF38BD0548FFF72AF80448FFF7D3
:102B200027F80448FFF724F8E019012040F80008CE
:102B30004C040108780201080000000000000000B9
:102B400038B51D4BD3F8CC2082BBD3F8D010002968
:102B50002CDDDC681D68A168A868884225D9286832
:102B600018604360012085F84C0094F84C00DD604B
:102B7000F8B10F281DD084F84C20226C12689068A0
:102B80008142FBD35168C4E900210C60D3F8DC100A
:102B900054600131C3F8DC1004F1700005F17001DC
:102BA000FFF736F82846214600DF38BD0348FEF718
:102BB000DFFF0348FEF7DCFFE019012040F80008C2
:102BC0008C0201080000000000000000000000006E
:102BD00070B50446FFF7ECF8626853075BD1A36851
:102BE00013F0070157D19A4255D2981AA72852D903
:102BF000E068FF284FD82569002D4CD043F8402CC1
:102C00006269246843F8800C43F8200C012003F823
:102C10003A0C43F8702C0220204A03F83C0C43F88D
:102C2000745C03F83B1CA3F1A8066FF0020543F89F
:102C3000545C1B48D56A43F87C6C302643F8444CFE
:102C400043F8900CA3F1500443F8786C4FF0807077
:102C500002F1280643F88C0C43F8482C43F84C5CEE
:102C6000A3F1300043E90A1143F8506C2C60D462A0
:102C7000A3F1340443E90D404FF0FF320024002556
:102C800043F82C0C43E9062143E9041143E90245CA
:102C9000A3F1880070BD0348FEF76AFFE019012028
:102CA00051030008F00301080000000000000000CC
:102CB000F8B50368984223D0134AD2E93357ED0F91
:102CC0001A680260506093F84C40042C19D11965C1
:102CD0009DB9002F11DD1C6C9E6883F84C50246850
:102CE000D4F808C0B445FAD266681C6082425E60BF
:102CF0003360636004D01346E2E70448FEF738FF10
:102D0000F8BD0348FEF734FFE019012050F8000831
:102D1000E8010108000000000000000000000000C1
:102D200070B53023054683F311881D4C04F1E00093
:102D3000FEF736FFD4E93303034322D10123C4F85D
:102D4000D03009B34B1E0B401ED11648466849428D
:102D5000751B0D400168AA1A8A4210D396420ED301
:102D6000426000231048C4F8D030FEF729FF2368E2
:102D7000A3420CD1002383F31188284670BD1D4661
:102D8000EFE70A48FEF7F4FE0948FEF7F1FEE268B5
:102D90009B6892689A42EDD20648FEF7E9FE00BFB2
:102DA000E0190120D81B0120C01A012048F80008B2
:102DB000FC0201080C0201080000000000000000F5
:102DC00070B5302383F31188344C04F1F800FEF71A
:102DD000E7FED4F8CC30002B4FDDD4F8D030002BF8
:102DE0004BD12F4BD3F88C1401220868C4F8D020A3
:102DF0000578042D07D11D7A022D04D109790589A2
:102E00008A402A4208D027480025C4F8D050FEF74F
:102E1000D7FE85F3118870BDD3E915529542F2D1E2
:102E20001D6D002DEFD0DD6E002DECD0043DAD1AF0
:102E3000E9D015601D6DDE6D013D1D651D6E1544EB
:102E4000B5425D6524BF9D6E5D65D4F8CC5000260B
:102E5000B542DE661ADBD4F8D050B54216DD5D6DA2
:102E6000AA420DD052F8043BFFF7CAF8D4F8CC3090
:102E7000002B0EDC0C48FEF77BFE0C48FEF778FEBC
:102E80001B6D002BEED00A48FEF772FE0948FEF7D4
:102E90006FFED4F8D030002BECDDB4E7E019012050
:102EA0005C130120D81A012068F8000860F80008B7
:102EB000DC01010850F800080000000000000000DC
:102EC00038B52C4BD3F8CC2092BBD3F8D020002AB5
:102ED0002EDD1A68DD689A42A96804462ED1A068E2
:102EE0000022884222652FD995F84C0018B30F288C
:102EF00021D085F84C202A6C126890688142FBD35F
:102F00005168C5E900210D600121556084F84C101D
:102F1000D3F8DC20DC6004F17001013205F17000AF
:102F2000C3F8DC20FEF774FE2046294600DF38BDDA
:102F30001148FEF71DFE1148FEF71AFE92689142F5
:102F4000CDD20F48FEF714FE94F84C3073B10F2B1E
:102F50000CD0236C84F84C201B689A689042FBD9F3
:102F60005A68C4E9003214605C6038BD0548FEF759
:102F7000FFFD00BFE019012040F800088C020108A5
:102F80007C030108B00401080000000000000000FC
:102F900038B51C4C04F11003E16143602369826081
:102FA000036058604FF080432061D868022A38BF20
:102FB000022210F0020001EB02051CD15D631861D2
:102FC0000220D8605D6AA5EB010C624502D938BDCC
:102FD00029461546DA680130920701440ED5596337
:102FE0005A6A511B8142F3D20228F0D9636B43F035
:102FF0000103636338BD0448FEF7BAFD0348FEF7DA
:10300000B7FD00BFE019012008040108B80201085B
:103010002DE9F043484ED6F8CC3087B0002B3CD198
:10302000D6F8D040002C38DD4C1CD6F80C800A466F
:1030300025D079B3CDE90483B1464FF080430746EC
:10304000586A59F8103F3D4C03944B456AD0F569D6
:103050009A68451B4D1934BF2C460C46A24215D820
:103060009A68A2426D4605D31AE01B68A41A9A68B2
:10307000944215D9AB42F8D13148FEF779FDFFF7FC
:103080001FFDD8F8500007B0BDE8F083FFF780FCC3
:103090003369E5E72B48FEF76BFD2B48FEF768FD2B
:1030A00002949A6859680093121B01910D60C3E95C
:1030B00001524FF0FF33B3613846FFF701FDD6F8F8
:1030C000CC30002B2BDBD6F8D030002B27DD009B3B
:1030D000002BD6D03269AA420AD0DDE901109A68E5
:1030E0000B600244C3E901124FF0FF33B361C8E73C
:1030F00000224B4533610092C3F8049018D09A68BF
:103100000298F16902444FF080409A60406A431A85
:103110009A42B6D9091A1144FFF73AFCB1E70B48B5
:10312000FEF726FD6D4601462846FFF731FFC3E74F
:103130004FF08043DA60A4E7E0190120F12900088C
:10314000B0050108FC05010840F8000850F8000827
:10315000F8B51B4ED6F8CC7057BBD6F8D030002B44
:1031600004460D460BDC23E062682946C3E90042B1
:10317000042013606360FFF74BFF00281BDBE3684C
:1031800043B9237A83B9F368002DEDD14FF0FF37AF
:103190003846F8BDE36883B163691A6804331A449A
:1031A000C4E90A323846F8BD6FF001073846F8BD69
:1031B0000448FEF7DDFC0746EAE70348FEF7D8FCC3
:1031C000E019012040F8000808060108000000008E
:1031D00070B53023054683F31188264C04F1E000D6
:1031E000FEF7DEFCD4E93323134322D1AB6A01227C
:1031F000C4F8D0201BB313F8016BEA6AAB629342A8
:1032000013D2D4F8CC30BBB9D4F8D020002A13DDC7
:103210001948C4F8D030FEF7D3FC2368A34215D177
:10322000002383F31188304670BD2846FEF730FD39
:10323000E7E71248FEF79CFC1148FEF799FC284688
:10324000FFF786FF064648B9AB6AD4E7E2689B6899
:1032500092689A42E4D20B48FEF78AFCD4F8CC304C
:10326000002BE9D1D4F8D020002AE5DD04F1E000FC
:10327000CFE700BFE0190120C01A012048F800087C
:1032800058F8000844060108000000000000000093
:103290004FF0FF310C30FFF79BBF00BF0000000074
:1032A0000C30FFF795BF00BF0000000000000000D9
:1032B000F8B51B4ED6F8CC7057BBD6F8D030002BE3
:1032C00004460D460BDC23E062682946C3E9004250
:1032D000042013606360FFF79BFE00281BDBE3689C
:1032E00043B9237A83B9F368002DEDD14FF0FF374E
:1032F0003846F8BDE36883B12369E1691A1D0B44C0
:10330000C4E90A233846F8BD6FF001073846F8BD16
:103310000448FEF72DFC0746EAE70348FEF728FCC1
:10332000E019012040F8000818040108000000001E
:10333000F8B505460E46302383F311882A4C04F174
:10334000E000FEF72DFCD4E933130B4325D1012314
:10335000C4F8D030AB6A33B31E70D5E90A320133FA
:103360009342AB6213D2D4F8CC70CFB9D4F8D0303A
:10337000002B15DD1D48C4F8D070FEF721FC236832
:10338000A34229D1002383F311883846F8BDE969A7
:1033900028460439FEF7C4FCE5E71548FEF7E8FBCC
:1033A0001448FEF7E5FB11462846FFF781FF074664
:1033B00008B9AB6AD0E7D4F8CC30002BF0D1D4F800
:1033C000D020002AECDD04F1E000C4F8D030FEF794
:1033D000F7FB2368A342D5D0E2689B6892689A42C3
:1033E000D0D20548FEF7C4FBE0190120C01A012025
:1033F00048F8000858F800084406010800000000DA
:103400004FF0FF324430FFF793BF00BF00000000D1
:103410004430FFF78DBF00BF000000000000000037
:103420002DE9F04100284AD00446302383F3118867
:10343000364D05F1E000FEF7B3FBD5E933731F43CA
:1034400040D10123C5F8D0302379022B37D1A36AAC
:103450000E46D96940F20F12114236D1DB699B0644
:1034600004F1180810D4A3691BBB2EB3EB68A36149
:103470003146C3F850800320FFF7CAFD00283DD134
:10348000A36ADB699B06EED5D5F8CC305BBBD5F8DB
:10349000D020002A27DD1E48C5F8D030FEF790FB6B
:1034A0002B68AB4222D1002383F311883846BDE854
:1034B000F0811848FEF75CFB4FF0FF37E4E7164851
:1034C000FEF756FB1548FEF753FBC5F8D070FEF724
:1034D00077FB2B68AB4213D1002383F311880127BC
:1034E0003846BDE8F0810E48FEF742FBEA689B686B
:1034F00092689A42D7D20B48FEF73AFB0746C3E7D9
:10350000EA689B6892689A42E6D2F4E7E0190120E3
:10351000C01A0120C40401089C04010848F80008EE
:1035200058F80008C4030108000000000000000073
:103530002DE9F04F83B098460192002A78D03E4F93
:1035400083460E464FF0000907F1E00A414658460F
:10355000FFF766FF002853D1BBF1000F57D0002EB4
:1035600055D0302282F311885046FEF719FBD7E977
:10357000331211434ED10122C7F8D0209BF804200A
:10358000022A44D1DBF82840E56915F0200514D063
:10359000019B0D46A3EB09013144B44601E08C4583
:1035A00032D0626A0CF8012BDBF82840E2699306FE
:1035B00005F10105F3D4D7F8CC10DBF80C20500747
:1035C00003D5A06840F08050A060920503D5226822
:1035D00042F01002226001BBD7F8D020002A1CDD87
:1035E0005046C7F8D010FEF7EBFA3A68BA4217D146
:1035F000002282F31188019BA9444B452E44A5D893
:10360000484603B0BDE8F08FD7F8CC10E3E70B488D
:10361000FEF7AEFA0A48FEF7ABFA0A48FEF7A8FA38
:103620009168FA6892688A42E2D20748FEF7A0FAE7
:10363000DDF80490E4E700BFE01901207C050108F3
:1036400048F8000858F80008C4030108000000000A
:103650004FF0FF33FFF76CBF0000000000000000D8
:10366000FFF766BF0000000000000000000000003F
:1036700010B54FF0FF310446FFF7D2FE00B110BD88
:10368000A36A586ADA699206F9D4E268510703D549
:10369000996841F0805199609205F0D51A6842F01E
:1036A00010021A6010BD00BF000000000000000002
:1036B00010B50446FFF7B4FE00B110BDA36A586A06
:1036C000DA699206F9D4E268510703D5996841F0A6
:1036D000805199609205F0D51A6842F010021A6084
:1036E00010BD00BF0000000000000000000000004E
:1036F0002DE9F041002842D00446302383F311889D
:10370000274E06F1E000FEF74BFAD6E933731F436C
:1037100038D10123C6F8D0302379022B2FD10D46A2
:1037200004F12008A36ADB691B060DD4236A03BBDE
:1037300015B3F36823622946C3F850800320FFF7CE
:1037400067FC0028EED00746D6F8CC30EBB9D6F8A7
:10375000D020002A19DD1348C6F8D030FEF730FA21
:103760003368B34214D1002383F311883846BDE88F
:10377000F0810D48FEF7FCF94FF0FF37E4E70B4806
:10378000FEF7F6F90A48FEF7F3F90A48FEF7F0F9F2
:10379000F2689B6892689A42E5D20748FEF7E8F91A
:1037A000E0190120C01A0120C40401081C0301080B
:1037B00048F8000858F80008C40301080000000099
:1037C0002DE9F04F83B098460192002A6DD0384F12
:1037D00083460E464FF0000907F1E00A414658467D
:1037E000FFF786FF00284BD1BBF1000F4FD0002E12
:1037F0004DD0302282F311885046FEF7D1F9D7E937
:1038000033210A4346D10121C7F8D0109BF8041098
:1038100002293CD1DBF82850EC6914F0800410D068
:10382000019BA3EB090114463144B44601E0614514
:103830002AD01CF8012BAA62EA69120604F10104DD
:10384000F5D4DBF80C20110703D5A96841F4000179
:10385000A960D30603D52A6842F040022A600022FC
:103860005046C7F8D020FEF7ABF93A68BA4214D1F7
:10387000002282F31188019BA1444B452644ADD818
:10388000484603B0BDE8F08FDBF80C20E1E70948BB
:10389000FEF76EF90848FEF76BF99168FA689268CE
:1038A0008A42E5D20548FEF763F9DDF80490E7E7C0
:1038B000E01901201005010848F80008C4030108B8
:1038C0004FF0FF33FFF77CBF000000000000000056
:1038D000FFF776BF000000000000000000000000BD
:1038E00070B50E464FF0FF310546FFF701FF044665
:1038F00018B931462846FEF723F9204670BD00BFAF
:1039000070B50E4611460546FFF7F2FE044618B99B
:1039100031462846FEF714F9204670BD000000002D
:1039200010B50146302383F311881A4C04F1E000EE
:10393000FEF736F9D4E9332313431AD10123C4F82F
:10394000D030E1B10820FFF763FBD4F8CC309BB94D
:10395000D4F8D020002A0FDD04F1E000C4F8D03004
:10396000FEF72EF92368A3420CD1002383F31188BC
:1039700010BD0948FEF7FCF80848FEF7F9F80848BA
:10398000FEF7F6F8E2689B6892689A42EDD2054825
:10399000FEF7EEF8E019012048F8000858F8000892
:1039A000C0050108DC030108000000000000000061
:1039B000344C354AE36880B54FF40058334F5A64AD
:1039C000C146302604F1E005A7F8189086F3118867
:1039D0002846FEF7E5F8D4E9332313433ED101230B
:1039E000C8210820C4F8D030FFF712FBD4F8CC303F
:1039F000BBBBD4F8D020002A33DD2846C4F8D03031
:103A0000FEF7DEF82368A34236D1002383F3118842
:103A1000A7F81A8086F311882846FEF7C1F8D4E982
:103A2000332313431AD1012342F248610820C4F81A
:103A3000D030FFF7EDFAD4F8CC3093B9D4F8D020D9
:103A4000002A0EDD2846C4F8D030FEF7B9F8236806
:103A5000A34209D1002383F31188B5E70C48FEF790
:103A600087F80C48FEF784F8E2689B6892689A42EF
:103A7000F0D20948FEF77CF8E2689B6892689A42A7
:103A8000C3D2F6E7E019012070F8000800100048E2
:103A900048F8000858F80008DC030108000000009E
:103AA00008B5134BD3F8CC20002A18DBD3F8D0305C
:103AB000002B14DDC8B190F84C309BB10F2B11D006
:103AC0000022036C816880F84C201B689A688A4247
:103AD000FBD25A68C0E900321060586008BD054842
:103AE000FEF746F80448FEF743F80448FEF740F8AE
:103AF000E019012050F80008B00401084805010849
:103B0000F8B50C0768D443681A780446002A4CD1EB
:103B1000456A5E686968026A0B6823F00F030B60F0
:103B2000297C2D680E2303FA01F16960D2E9007542
:103B3000296821F00F012960127C93407B60002EE0
:103B40004DD004230370B0472378042B47D0302393
:103B500083F31188284D05F1F800FEF721F8D5F818
:103B6000CC30002B3EDDD5F8D030002B3AD1A06808
:103B70000122C5F8D02078B190F84C20032A37D123
:103B8000A3600365FFF78CFFD5F8CC30002B2CDD4C
:103B9000D5F8D030002B28DD18480024C5F8D040D7
:103BA000FEF70EF884F31188F8BD4A070D4603D5D9
:103BB0005B68002BF8D09847AB07F5D563685B6866
:103BC000002BF1D004222270204698472378042B42
:103BD000EAD103232370F8BD0948FDF7C9FF02238A
:103BE0002370B4E70748FDF7C3FF0748FDF7C0FFA0
:103BF0000648FDF7BDFF00BFE0190120D81A0120DB
:103C000074F8000860F8000868F800085C0401080F
:103C10000A0700D4704708B50148FDF7A9FF00BFA7
:103C200074F8000800000000000000000000000020
:103C300008B5114BDC68636D206504F154059D42A5
:103C400008D194F84E3073B10F20FEF739FF0B48BE
:103C5000FDF78EFF1A6862651846FFF721FF636D56
:103C60009D42EED0F6E794F84D309B07ECD1D4E9B5
:103C70000E3213605A60E7E7E01901205C06010884
:103C8000F8B50446302383F311884B4E06F1E0006B
:103C9000FDF786FFD6E93323134376D1A068F56894
:103CA0000123C6F8D030002872D0AB6882689342F6
:103CB00007D9836090F84C30062B4DD0072B37D0B6
:103CC00063B3234603E09968AA68914202D31B6854
:103CD0009C42F8D15A680620C5E9003215605D6043
:103CE0002C65FEF7EDFEA3689D4259D16B6E9C4298
:103CF00056D1D6F8CC30002B4FD1D6F8D030002B8F
:103D00004BDD00232D48C6F8D030FDF759FF33684E
:103D1000B34248D1002383F31188F8BD012380F812
:103D20004C30D0E9003213605A60FFF7B9FEC8E7A3
:103D3000D0E90032076D13605A603B4603E0996892
:103D40008268914202D31B689F42F8D15A6803608F
:103D5000426010605860B4E7D0E90032076D13602C
:103D60005A603B4603E099688268914202D31B681F
:103D70009F42F8D15A684260036010605860B8688A
:103D8000AB688268934294D89BE70D48FDF7F0FE3C
:103D90006B6EC4E902536C66B3E70A48FDF7E8FEB0
:103DA0000948FDF7E5FEF2689B6892689A42B1D235
:103DB0000648FDF7DDFE00BFE0190120C01A012012
:103DC00048F8000858F80008DC0401085405010808
:103DD00070B52E4C0246E568302383F3118804F158
:103DE000E000FDF7DDFED4E93331194343D1686EBD
:103DF0000123C4F8D03000283AD08368AB4237D1D1
:103E0000904235D11668D3686B66B24222D0A86E54
:103E10004BB119688B4203D08968884238BF084685
:103E2000DB68002BF5D1A86010680368416E136051
:103E30005A60C2E902014266FFF732FEFEF780FED9
:103E4000D4F8CC301BB9D4F8D030002B03DC1048A8
:103E5000FDF78EFE816000230E48C4F8D030FDF7D8
:103E6000AFFE2368A34209D1002383F3118870BDFC
:103E70000948FDF77DFE0948FDF77AFEE2689B6878
:103E800092689A42F0D20648FDF772FEE0190120CE
:103E900058F80008C01A0120E402010848F8000898
:103EA00054050108000000000000000000000000B0
:103EB0002DE9F0413023054683F31188804C04F14D
:103EC000E000FDF76DFED4E93336334341D1AA6BF0
:103ED0000121C4F8D01004F128018A423CD0937D1E
:103EE000FF2BA2F138067BD0013393750023754870
:103EF000C4F8D030FDF764FE2368A34273D10023D9
:103F000083F31188302383F311886E48FDF748FE50
:103F1000D4E9333213431CD10122C4F8D02095F8E0
:103F20004E20002A67D0013A85F84E20EA6C02F054
:103F3000FF120F2A12D0C4F8D030FDF741FE2368DB
:103F4000A34240F09180002383F311883046BDE8FE
:103F5000F0815D48FDF70CFE1E46C7E7D5E90E214E
:103F60000A605160C4F8D030FDF72AFE2368A342EE
:103F700040F08C80002383F3118895F84D3003F0D6
:103F80000303012B3AD0022BE0D1E96EAA6C302357
:103F900083F311884B48FDF703FED4E933532B43D9
:103FA000D7D10123C4F8D030002900F08580002A41
:103FB00000F082808B68013B13407DD10D68156055
:103FC0000A60C4F8D030FDF7FBFD2368A342BAD0E5
:103FD000E2689B6892689A42B5D23C48FDF7C8FDFA
:103FE0003B48FDF7C5FDE2689B6892689A4286D21D
:103FF0003848FDF7BDFD3848FDF7BAFDAF6C002F1E
:1040000041D07B073FD157E902530733DB0805F165
:104010000C0847F8043C04354046FFF731FEA7F191
:1040200008042B469C4228D29D421A6801D09C422B
:1040300018D90AB1944215D247F8082C57F8042C25
:104040001C6057F8081C013204EBC20081422BD0DF
:1040500059684A1C03EBC20294421ED04046FFF747
:10406000B7FE73E71346DDE7E2689B6892689A4201
:10407000BFF469AF1948FDF77BFD5A68013203EBC5
:10408000C2029442D0D21648FDF772FDE2689B68E6
:1040900092689A42BFF46EAFECE757E90202013230
:1040A000114418605960D9E74868024447F8042C65
:1040B0000A6847F8082CCBE70A48FDF759FD00BF0E
:1040C000E0190120C01A012048F800086C0401081A
:1040D000FC010108D802010894060108DC0301086C
:1040E0001802010810030108000000000000000091
:1040F0002DE9F041244FD7F8CC30002B36DBD7F830
:10410000D030002B32DD0468A042064620D00D4698
:104110004FF00008E3682B43E36015B123691D42AB
:1041200013D0D7F8CC30002B20DBD7F8D030002BC1
:104130001CDD606828B3026EA368134390F84C201E
:1041400003660A2A15D00B2A04D02468A642E1D1BE
:10415000BDE8F081026D32EA0303F6D1C0F8508069
:10416000FFF79EFC2468A642D4D1F1E70748FDF78B
:10417000FFFC026D1342E8D0C0F85080FFF790FCBE
:10418000F0E70348FDF7F4FCE019012050F80008BF
:10419000E80401080000000000000000000000002A
:1041A00000EB81032DE9F0419F6A002F41D00546C5
:1041B000302383F31188484C04F1F800FDF7F0FC3C
:1041C000D4F8CC30002B71DDD4F8D030002B6DD179
:1041D0000E4605EB860801230821381DC4F8D030AF
:1041E000FFF786FFD8F80C305B691B681BBBD4F85F
:1041F000CC30002B5DDBD4F8D030002B59DD7B6D4B
:10420000BA6D93423FD052F8043B31462846FDF741
:10421000F7FED4F8CC30002B45DDD4F8D030002B9D
:1042200041DD2E480025C4F8D050FDF7C9FC85F3C8
:104230001188BDE8F081D4F8CC30002B39DBD4F8FC
:10424000D030002B35DDD7E91532934234D0396DAB
:10425000786C01313965396E0A44F96DBA658A4264
:1042600024BFBA6EBA6507F144028242C8D003681F
:104270007B645A6090F84C30042B2AD100230365EC
:10428000FFF70EFCB3E73B6D002BBCD0D8F80C3029
:104290005A6912681AB11B8A013B134012D0D4F834
:1042A000CC30002BBDDC0E48FDF762FC0D48FDF75D
:1042B0005FFC0D48FDF75CFC396D0029C7D00B4849
:1042C000FDF756FC05F1740231462846FDF798FECD
:1042D0009FE70748FDF74CFCE0190120D81A0120A0
:1042E00068F8000860F8000850F800087804010831
:1042F000E8010108000000000000000000000000CC
:1043000008B50346006883420CD002681A60536007
:1043100090F84C30042B06D100230365BDE808401B
:10432000FFF7BEBB08BD0148FDF722FCE80101080C
:1043300010B5D0F88C341C682278042A02D1027A95
:10434000022A00D010BD5979628901238B401342A3
:10435000F8D10E4BD3F8CC20002A13DBD3F8D030A1
:10436000002B0FDDD0E907239A4207D020464FF4F7
:104370008073BDE810400432FDF7F2BD8369002B65
:10438000F4D010BD0248FDF7F3FB00BFE019012097
:1043900050F80008000000000000000000000000CD
:1043A000406BFFF7C5BF00BF000000000000000029
:1043B000113170B550F821507DB3302383F311884B
:1043C000304C04F1F800FDF7EBFBD4F8CC30002BB7
:1043D00049DDD4F8D030002B45D1D5F88C24012309
:1043E000C4F8D0301368527903EB8203DB689B6911
:1043F0005E689EB92846FFF79BFFD4F8CC30002BAF
:1044000034DDD4F8D030002B30DD1F480025C4F84F
:10441000D050FDF7D5FB85F3118870BD04216818D5
:10442000FFF766FED4F8CC30002B28DBD4F8D03070
:10443000002B24DDAB6A043B9E421DD8D5E9073230
:10444000934216D01E60A96AAA690B44696AEB619F
:104450008B4224BF2B6BEB610132AA6105F10C008A
:10446000FFF74EFFC6E70948FDF782FB0848FDF756
:104470007FFBAA69002AE5D00648FDF779FB0648CC
:10448000FDF776FBE0190120D81A012060F800083A
:1044900068F800086806010850F8000800000000ED
:1044A0002DE9F04F83B00193002A00F08480054687
:1044B0004FF0300A8AF311884F4C04F1E000FDF709
:1044C0006FFBD4E933631E434DD10F4690468146BE
:1044D000A96A0123C4F8D03000295DD0EA6AA8EBAC
:1044E000060B521A934528BF9346BBF1400F3DD9A6
:1044F0003B4601F1400BD1F800C048688A68D1F80A
:104500000CE0C3F80CE010315945C3F800C0586006
:104510009A6003F11003EED1AA6AEB6A403293422B
:1045200007F1400706F14006AA622BD9D4F8CC3037
:104530007BBBD4F8D020002A2BDD4846C4F8D0300D
:10454000FDF73EFB2368A3422DD1002383F311889E
:10455000464546D28AF311884846FDF721FBD4E947
:1045600033231343B4D02548FDF702FB38465A469F
:10457000FCF78AFCAA6AEB6A5A4493425E445F44A1
:10458000AA62D3D82846FDF783FBD4F8CC30002BA1
:10459000CFD01B48FDF7ECFA01992846FEF7D8FD6D
:1045A00060B9A96A9AE7E2689B6892689A42CCD29D
:1045B0001448FDF7DDFA1448FDF7DAFAD4F8CC30E8
:1045C000002BE6D1D4F8D020002AE2DD0F48C4F851
:1045D000D030FDF7F5FA2368A34206D1002383F318
:1045E0001188304603B0BDE8F08FE2689B6892689E
:1045F0009A42F3D2DCE700BFE019012048F8000836
:1046000058F800084406010860050108C01A012096
:104610004FF0FF330C30FFF743BF00BF0000000036
:104620000C30FFF73DBF00BF00000000000000009D
:104630002DE9F04F83B00193002A00F09280834669
:104640004FF0300989F31188564D05F1E000FDF770
:10465000A7FAD5E933631E4378D18046DBF82800FA
:1046600001230C461746C5F8D030B246002848D082
:10467000DBF82C20BB1B121A9A4228BF1A46402A8C
:1046800047D904F1400E21686268A368D4F80CC0D1
:10469000C0F80CC01034744501604260836000F1C2
:1046A0001000F0D1DBF82820DBF82C3040329342A8
:1046B00006F14006CBF828203BD9D5F8CC30002BAA
:1046C00041D1D5F8D020002A3DDD4046C5F8D03094
:1046D000FDF776FA2B68AB423BD18AF31188BE42D4
:1046E00055D289F311884046FDF75AFAD5E93323AC
:1046F00013432BD1DBF828000123C5F8D030002864
:10470000B6D101995846FEF7D3FD68BBDBF8280007
:10471000AEE72146164414440092FCF7B5FBDBF8E3
:104720002830009A1A44DBF82C30CBF8282093422A
:10473000C3D8DBF81C1058460439FDF7F1FAD5F858
:10474000CC30002BBDD01848FDF712FA1748FDF702
:104750000FFAEA689B6892689A42BED21448FDF745
:1047600007FA1448FDF704FAD5F8CC30002BEAD14B
:10477000D5F8D020002AE6DD0F48C5F8D030FDF787
:104780001FFA2B68AB4206D1002383F31188304611
:1047900003B0BDE8F08FEA689B6892689A42F3D252
:1047A000DCE700BFE019012058F8000848F80008CD
:1047B00044060108CC010108C01A012000000000D5
:1047C0004FF0FF334430FFF733BF00BF000000005D
:1047D0004430FFF72DBF00BF0000000000000000C4
:1047E00010B5144CD4F8CC30002B20DBD4F8D030EA
:1047F000002B1CDDC0B10378042B15D100EB810424
:10480000E3688BB9E26054691CB123606360A36004
:10481000E360936923B100221A605A609A60DA60FB
:10482000BDE81040FEF73CB80348FDF7A1F9034886
:10483000FDF79EF9E01901202406010850F8000850
:10484000F8B5052943D8DFE801F0034270030343BC
:10485000302383F311886B4C04F1F800FDF7A0F9C5
:10486000D4F8CC30002B40F3C980D4F8D030002BE2
:1048700040F0C480644D2B7D0122C4F8D02013B1D8
:1048800095F84C30DBB961480221FFF731FC012675
:104890005F482E756FF00101FEF70AFA5D4885F852
:1048A0004C606FF00101FEF703FAD4F8CC30002B16
:1048B00040F39E80D4F8D030002B40F399805648C6
:1048C0000025C4F8D050FDF77BF985F31188F8BDB9
:1048D000302383F311884B4C04F1F800FDF760F9A5
:1048E000D4F8CC30002B40F38980D4F8D050002D80
:1048F00040F08480444E0121301DC4F8D010FFF7F1
:10490000F7FBD4F8CC303575002B86F84C506FDDB2
:10491000D4F8D030002B6BDD04F1F800C4F8D0508F
:10492000FDF74EF985F31188F8BD0446302383F373
:104930001188344D05F1F800FDF732F9D5F8CC3087
:10494000002B5BDDD5F8D060002E57D10127334A0C
:10495000C5F8D07039462046FFF742FF304A20465E
:104960000221FFF73DFFD5F8CC30002B43DBD5F813
:10497000D030002B3FDD244C236BA661C4E9073304
:10498000C4E90D666FF0010104F10C00FEF790F927
:10499000D5F8CC302675002B2DDBD5F8D030002B88
:1049A00029DD636E2365A36E6FF00101C4E9153341
:1049B00004F14400C4E91B66FEF77AF93946201D6C
:1049C00084F84C60FFF794FB2046FFF7B1FCD5F864
:1049D000CC30002B0CDDD5F8D030002B08DD05F1F4
:1049E000F800C5F8D060FDF7EBF886F31188F8BD44
:1049F0000C48FDF7BDF80C48FDF7BAF80B48FDF779
:104A0000B7F800BFE01901205C13012060130120FA
:104A100068130120A0130120D81A0120A008010862
:104A2000C408010868F8000850F8000860F8000899
:104A30000EB42DE9F04F92B01BAB53F804AB0B93BF
:104A40005546019315F8011B002900F0C7828046E6
:104A50004FF000090DE0D8F800304046DB68984779
:104A600009F10109AA46554615F8011B002900F075
:104A7000DE802529EFD19AF801302D2B06BF0AF1EF
:104A800002050123002300932B782B2B03BF6B78A7
:104A90004FF0010B01354FF0000B302B03BF0135F8
:104AA0001E462B7820262A2B4BD16B78019F2E2B6C
:104AB00057F8044B05F1020A59D0002503F0DF0234
:104AC0004C2A64D0A3F14102A3F14401D2B23429AB
:104AD00000F2B480DFE811F00B02B200B200B200C5
:104AE000B2000B02B200B200B200B200B200170175
:104AF000DF00B200B200B200B2006402B200B20045
:104B0000DF00B200B200B200B200B200B200B200E8
:104B1000B200B200B200C1010B02B2001A01B20031
:104B2000B2000B02B200B200B200B200B200170134
:104B3000DF00B200B200C901B2006402B200B200EC
:104B4000DF0005F1010A002B71D0002405E01AF8FE
:104B5000013B02EB4104002B69D0A3F13002D2B239
:104B6000092A04EB8401F2D92E2B019FA5D19AF8D2
:104B70000030002B5BD02A2B48D19AF8013057F82F
:104B8000045B03F0DF024C2A0AF1020A9AD11AF8F8
:104B9000013B002B4BD0A3F14402342A4ED8DFE86E
:104BA00012F0DC014D004D004D004D00DC014D00C8
:104BB0004D004D004D004D00B2007A004D004D00FB
:104BC0004D004D00FF014D004D007A004D004D009D
:104BD0004D004D004D004D004D004D004D004D006D
:104BE0005C01DC014D00B5004D004D00DC014D00C5
:104BF0004D004D004D004D00B2007A004D004D00BB
:104C000064014D00FF014D004D007A000AF1010AD8
:104C10000025A3F13002D2B2092A05EB85013FF647
:104C20004DAF1AF8013B02EB4105002BF1D14B4689
:104C3000184612B0BDE8F04F03B070478DF8303021
:104C4000013C0197009B24EAE47523B9002CC5F1CF
:104C5000000500F38F814FF0000B0CAF0BF1010446
:104C60003C44D8F8003017F8011BDB6840469847F1
:104C7000A742F6D109F10109D944002D3FF4F3AE62
:104C80002C46D8F800303146DB6840469847013C56
:104C9000F7D1A944E7E64FF0100C3B460DF13B0B72
:104CA00053F8040B0193594600E011460546B0FB4A
:104CB000FCF00CFB105707F13003392BC8BF07F18C
:104CC0003703DBB2654501F1FF3201F8013CECD25C
:104CD0000CAFABEB0202384601E011F8013B00F8E3
:104CE000013B5945F9D1A41A02F1FF3B009B24EA8C
:104CF000E47523B9002CC5F1000500F3D680BBF1A3
:104D0000000FABDAB9E74FF0080CC6E7073727F01A
:104D10000703F3E802010193FCF7B2FB00210490C2
:104D2000FCF74CFC049B002840F02981BBF1000FEC
:104D300000F051812B228DF830200DF131020492C8
:104D40000CAF18460593FBF775FC013D082DCDE926
:104D50000201059B00F22781A74A52F825B0CDF841
:104D60001CB05846FBF744FCA44DCDE90801A5FB57
:104D70000B35059BED081846FCF740F8049BDFF85F
:104D80007CC2059003F10B0E01467246ACFB010399
:104D9000DB0803EB830B1846A1EB4B0330338B4648
:104DA000DBB2BBF1090F02F8013D0146EED80499D0
:104DB000AEEB020E01EB0E0001E012F8013F01F82C
:104DC000013B8142F9D12E23DDF810B001F80C3BF4
:104DD0000EF1FF3EF3440598CDF818B00491FBF7AF
:104DE00017FC02460B46DDE90201FBF7C3FADDE9D9
:104DF0000823FBF777FCFBF7D9FF079BDFF8FCC123
:104E00000499092B98BF05465B460233ACFB00E2D0
:104E1000D20802EB820B9646A0EB4B023032704672
:104E2000AE46D2B2ACFB05B5BEF1090F01F8012DBB
:104E30004FEAD505EAD80498069D401A0230054489
:104E4000284601E011F8012F03F8012B8342F9D124
:104E5000DB1BE41A03F1FF3B48E757F8043B0197DB
:104E6000013C8DF830302026ECE63B4653F8047BBD
:104E70000193002F00F08D803A78002D00F09C8087
:104E8000002A00F09B80013D00F198803A4601E045
:104E9000E94204D412F8013FB91A002BF8D1D21B11
:104EA000A41A02F1FF3B202620E72C4639782D2951
:104EB00010D02B290ED0D8F800303146DB684046A0
:104EC00098470135F7D1BBF1000FA9EB0409BFF6F4
:104ED000C5AEC8E5302EEED1D8F800204046D268E5
:104EE000013709F101090BF1FF3B9047E3E7192A6C
:104EF00033D93B4653F8041B0193002932DBBBF145
:104F0000000F65D02B238DF830300CAF0DF131033D
:104F100003F10B0CDFF8E4E06046AEFB0152D2086F
:104F200002EB820B1546A1EB4B0230328B46D2B21C
:104F3000BBF1090F00F8012D2946EEDCACEB0001B6
:104F4000194401E010F8012F03F8012B8B42F9D12D
:104F5000DB1BE41A03F1FF3BC8E657F8041B01977B
:104F60000029CCDA2D238DF8303049420DF1310380
:104F70000CAFCDE7DDF800B02C460CAF96E72D2244
:104F80008DF830200DF1310203F1004304920CAF93
:104F9000D7E61B4F002D7FF476AF47F6FE7575E719
:104FA0004FF00A0C79E6174A079211A2D2E90012D3
:104FB000154DCDE90812DEE6002AEED1009B24EA69
:104FC000E4751BB9002CC5F1000509DC202654E668
:104FD0000CAF3B469CE70CAF0497B2E60B4627E6C6
:104FE0002C464FF0FF3B202660E700BFAFF3008068
:104FF0000000000065CDCD41EC080108CDCCCCCC43
:105000007410010800CA9A3B00E1F5050000000099
:1050100000292EDC10B5194A194982B00446FFF761
:1050200007FD184A18492046FFF702FD174A18499C
:105030002046FFF7FDFC174A17492046FFF7F8FC0A
:10504000164A17492046FFF7F3FC164A1649204630
:10505000FFF7EEFC154A16492046FFF7E9FC154814
:105060000090154B154A16492046FFF7E1FC02B0A7
:1050700010BD144A1449FFF7DBBC00BF94F80008C8
:105080009CF80008B0F80008D0F80008E4F8000820
:10509000F4F8000808F9000814F9000828F90008D5
:1050A00044F9000858F9000874F9000888F9000864
:1050B000B0F90008ECF90008C4F90008C8F90008C4
:1050C000D4F9000880F8000888F800080000000003
:1050D000012903D0034A0449FFF7AABC1268034917
:1050E000FFF7A6BCF8F9000888F8000808FA0008DD
:1050F000002905DC4FF0804303495A6AFFF798BC4A
:10510000024A0349FFF794BC18FA000810FA000895
:1051100088F8000800000000000000000000000007
:10512000002933DCF8B51D4C074604F10C00FEF7EE
:10513000A7FD636873B3002422462646D3E90031F5
:105140008C4206F101060A4438BF0C46002BF5D10B
:10515000D500E4001248FEF73BFE124B1249D3E99A
:1051600000323846D21AFFF763FC32460F49384600
:10517000FFF75EFC2A460E493846FFF759FC2246E7
:1051800038460C49BDE8F840FFF752BC0A4A0B49C3
:10519000FFF74EBC1C461D461E46DBE7F41B0120F4
:1051A000001C0120D81B012024FA000844FA000842
:1051B0005CFA00087CFA000820FA000888F8000869
:1051C00000294CDC2DE9F0472C4986B00746FFF753
:1051D0002FFC302383F31188294D05F1E000FCF703
:1051E000DFFCD5E9333213433DD1AC6AA27D0132F5
:1051F000A275C5F8D030FCF7E3FC2B68AB42A4F1F4
:10520000380433D1002383F31188DFF87890DFF876
:105210007880DFF878A094F84C1094F84E60226CF7
:10522000E06859F821C0A168126BD4E91153013E1E
:10523000002D08BF4546039101945146CDF810C09A
:105240000090059502963846FFF7F2FB2046FEF7E0
:105250002FFE04460028DED106B0BDE8F0870C4AD8
:105260000C49FFF7E5BB0C48FCF782FCEA689B6839
:1052700092689A42C6D20948FCF77AFCA4FA000860
:10528000E0190120D8090108FC000108E8FA00082B
:105290009CFA000888F8000848F80008D8020108BD
:1052A000002900DC70470149FFF7C2BB14FB00086E
:1052B0002DE9F8431A491B4C1B4DFFF7B9FB4FF47E
:1052C00080574FF4005643F6FF734FF480494FF474
:1052D0000048A4F8189042F21070A4F818802783B0
:1052E00026836B61FEF71CFB4FF440536B6142F267
:1052F0001070FEF715FB42F210706E61FEF710FBA6
:105300006F6142F21070FEF70BFB00236B61A4F893
:105310001A90A4F81A8067836683BDE8F88300BFFB
:1053200024FB0008001000480004004800000000B2
:105330000149FFF77DBB00BF3CFB000800000000F7
:1053400008B50949FFF774FB6420FEF7E9FABFF3DB
:105350004F8F0649064BCA6802F4E0621343CB60E4
:10536000BFF34F8F00BFFDE760FB000800ED00E0DA
:105370000400FA050000000000000000000000002A
:10538000F0B5013A83B00F4604460D468E182368E7
:1053900001229B680DF107012046984740B39DF814
:1053A0000710082910D07F290ED00D2923D01F29DE
:1053B000EDD9B5422046EAD22368DB6898479DF8CC
:1053C000073005F8013BE2E7BD424FF008012046F7
:1053D000DDD02368DB68984723682021DB682046FE
:1053E000984723680821DB682046013D9847CEE7AF
:1053F000012003B0F0BD04492046FFF719FB00204F
:10540000287003B0F0BD00BFF4FF000800000000EA
:1054100070B50D46B8B104462860124920460AF01E
:10542000E9F9215C222904EB000612D00D4930462F
:105430000AF0C4F998B1421C00232A600370337843
:1054400023B1304670BD0C68002CE6D100263046F2
:1054500070BD013630460AF04BF90028EBD12860C8
:10546000EDE700BF7CFB000800000000000000002A
:105470002DE98048DFF89C810668D8F80C30416837
:10548000654A5A6499B08146019130466349FFF7F5
:10549000CFFA63493046FFF7CBFAD8F80C3093F8CF
:1054A0004D305A076ED4DFF87CA1DFF87CB109E0FB
:1054B0004FF47A70FEF734FAD8F80C3093F84D3088
:1054C0005B075FD451463046FFF7B2FAD9F80000C7
:1054D000402208A9FFF754FF0028E9D102A9044699
:1054E00008A8FFF795FF02A90746002003ADFFF7C4
:1054F0008FFF50B1042C39D045F8040B02A90020CD
:105500000134FFF785FF0028F4D118AB03EB8403C7
:1055100043F8540C002FCFD059463846FBF754FDC2
:10552000002843D1002C55D14049414C414D3046D3
:10553000FFF77EFA404A29463046FFF779FA54F8D9
:10554000082F002AF7D1019B5BB11A684AB1394D87
:105550001C4629463046FFF76BFA54F8082F002AFC
:10556000F7D12E493046FFF763FAA5E733493046B5
:10557000FFF75EFA00230793D8F80C3093F84D300C
:105580005B079FD5302383F311882D48FCF708FB78
:10559000D8E933140C431AD12A4801232146C8F80C
:1055A000D030FEF7A5FD2046FEF742FB204D2248F5
:1055B00002E055F8080F98B13946FBF705FD0028C1
:1055C000F7D16B6803AA21463046984774E71E4816
:1055D000FCF7CEFA1D495A463046FFF729FA6BE729
:1055E000019B63B1186850B11D4602E055F8080FE1
:1055F00028B13946FBF7E8FC0028F7D1E1E7144968
:105600003A463046FFF714FA12493046FFF710FACF
:1056100052E700BFE019012080FB0008F4FF0008FA
:1056200088FB00089CFB0008C8FB0008D0FB0008B2
:10563000A8090108E0FB000880F80008B0FB00089A
:10564000C01A0120001D012048F8000888F8000851
:10565000E4FB0008E8FB0008000000000000000078
:10566000F8B53C4C0546FCF7A3FB216800234FF03E
:10567000010C0CFA03F20A4204D00133102BF8D1CA
:105680000020F8BD11432160591C334844F83150C3
:1056900004EBC101314D48605FFA82FC1420614681
:1056A00000FB035049B12E498E6C46F001068E6412
:1056B0008E6E46F001068E66896E12F47F4F09D019
:1056C00027498E6C46F002068E648E6E46F0020606
:1056D0008E66896E22498E6C46F004068E648E6E4C
:1056E0004FF0140C46F004060CFB035C8E66896ECA
:1056F000DCF808606168314212D00A43626014220B
:1057000002FB03F3EA18EC585368157C19680E2263
:1057100021F00F011960AA40002162601960F8BDF4
:105720009CF812C04FEA5C16B6000CF1604E06F110
:10573000604606F561460CF01F0C01270EF5614E20
:1057400007FA0CF74FF0A00C8EF800C3C6F8807172
:105750003760D2E7101C01201C180120A4060108A4
:1057600000100240000000000000000000000000E7
:10577000F8B50446302383F31188324D05F1E0007B
:10578000FCF70EFAD5E9330303434AD10123C5F8E8
:10579000D030002C42D0002A40D063681B78002B08
:1057A0003AD12378022B39D1236AE76AD4F828C08A
:1057B000032020705E68636A5B6847F0800704F12D
:1057C000300EC6F80CE07160C6F800C0DA605960AF
:1057D0001F60326842F0010232601A6842F0010232
:1057E0001A60A3685BBBEB6844F8083F1C65FDF7D3
:1057F00067F9D5F8CC30BBB9D5F8D020002A13DD35
:105800001148C5F8D030FCF7DBF92B68AB420ED15C
:10581000002383F31188F8BD0129C2D10B48FCF79E
:10582000A7F90B48FCF7A4F90A48FCF7A1F9EA68C4
:105830009B6892689A42EBD20748FCF799F90748AF
:10584000FCF796F9E0190120C01A01208C05010827
:1058500048F8000858F8000898030108C404010833
:1058600010B50B4CA36801221A70A36802785A7015
:1058700063681868FCF7F4FAD4E901320221186869
:10588000FFF776FF6368BDE810401868FCF728BB97
:10589000C011002000000000000000000000000017
:1058A0002DE980480FF2781BDBE900AB5E4C5F4AC4
:1058B000E368DFF87C91DFF87C815A6489B0CDE938
:1058C00000AB002389F80030302383F311885A4855
:1058D000FCF766F9D4E93332134340F0C581574DE4
:1058E0000122C4F8D0202A7D05F12007F2B9002B4F
:1058F000C0F2B781D4F8D020002A40F3B2812A69DF
:10590000002A40F0BA81E6686A6A37607260166001
:105910006E62002B40F0AB810420FDF7D1F8336DAF
:1059200023B92A7DD4F8CC30002AE0D0D4F8CC308A
:10593000002B40F0C281D4F8D020002A40F3BD8172
:105940003D48C4F8D030FCF73BF92368A34240F04F
:10595000BD81002383F31188DDF80CA0DFF8E0B0EF
:10596000D446BCE80F005E460FC69CE80300012742
:1059700086E8030089F800704FF0300E8EF311882E
:105980002D48FCF70DF9D4E93323134340F06C8123
:105990005146C4F8D070002900F06C81294A936800
:1059A000013B13EA0A0340F06581039E11683160F0
:1059B000C4F8D0301660FCF703F92368A34240F026
:1059C0000282002383F311881F4A9BF814704FF45E
:1059D000004111834FF4804151833846FAF708FEA5
:1059E00003F0ACFEFBF72CFD0646C7F10E00FAF7FC
:1059F0000FFE03F0A3FEFBF7D9F99BF810C0134F7D
:105A00000023BCF1020FB6B200B23B8000F0588117
:105A1000BCF1040F00F054810C4F012239461CE008
:105A20009A9999999999B9BFE0190120F0FB00085A
:105A30004813012000040240C01A01202013012055
:105A4000E01101201013012000100048E011002097
:105A50000B88034421F8023F01329642F8DAACF198
:105A6000030CBCF1010F40F294819D4B9D491868D5
:105A7000FEF7DEFF9C4A9D4B12885A6100BF00BFB3
:105A80009B4F7A681169012301F00F0203FA02F2B9
:105A900021F00F0192B20A8300BF00BF7A6811693A
:105AA00001F00F0203FA02F221F00F0192B24A83D1
:105AB00007A800228DF81C20FFF7D2FE7A68D26971
:105AC00002213970012302F00F018B4022F00F02F6
:105AD0009BB253834FF4FA7300BF013BFCD17B6848
:105AE0001869012100F00F03994020F00F00BBF866
:105AF0001230049340F20222FBF7BAFF7D4B7E483E
